:020000042000DA
:1000000000980020A9040020B1040020C9040020A9
:1000100000000000000000000000000000000000E0
:10002000000000000000000000000000E1040020CB
:100030000000000000000000F9040020FB04002084
:10004000771D0020053103000D310300FD1D002048
:10005000091E00208D3103005F1E0020671E002056
:10006000FD040020FD0400207F1E0020AD310300B0
:1000700057810200211200204B1B02004B1B020083
:100080004B1B0200FD0400204B1B020075100020DA
:10009000791000207D1000208110002085100020A4
:020000042000DA
:100160003200000019060020930E0020B921002063
:10017000000000000000000063800200BD8002005B
:10018000DD0C0020FB800200198102003581020095
:100190005D810200491D0020FF050020AD0C0020FC
:1001A000C50C002000000000000000003F0000001F
:1001B000F48B002000040000740B080048010000CC
:1001C0006807080000040000C80C080020050000B3
:1001D000000000002000000048000000580000005F
:1001E0006800000004010000160100002801000062
:1001F0002E010000202A00008E2E000001000000C9
:10020000881300001D0F0020E9600200FD9302002A
:100210000313002019280300A574020051190020BF
:1002200003000000D5200200C521002004000000CA
:10023000D74902000F490200831D020063910200AA
:10024000B7910200BF910200078202007182020092
:10025000983A0020AD830200938402004185020099
:1002600015860200378602005F860200758602004E
:10027000F9870200258902005D8A0200D38C020002
:10028000098D02000F900200438D0200278E0200AC
:10029000F98E0200478F02001F0C0020D58F02004C
:1002A00049510200775102002F5202001000000055
:1002B00020030000803E000000000000000000005D
:020000042000DA
:1002C000504600030003983A6400F401B80B000C98
:1002D000B80B120030003000CD009A01120024004B
:1002E00030006400B0001800280012001200D0078F
:1002F0000000FFFF00000000000000000000000000
:100300001F000002444131343538302D30310000B7
:1003100000000000000000000000000000000000DD
:0403200000000000D9
:020000042000DA
:10034000FFFF010000C201000000000000000000EB
:100350000000F4010100011B0A071AFFD200021578
:10036000585CDE931B0142CC9A1325009BEDC65EC0
:1003700000000000C5000000000009FF00605257A7
:100380002D424C450000000000000000000000006D
:100390000000000000000000000044413134353806
:1003A00078000000000000000000000000000000D5
:1003B000000000000000000000000000000000003D
:1003C000000000000000000000000000000000002D
:1003D0000000000000000000010000CAEA80D00711
:0403E000064064323D
:020000042000DA
:100440000348854602F0F6FF00480047C720020037
:100450000098002010B5114906200880FF2010499F
:10046000013008600F4988683E2290432E30886032
:100470000021052000070180028A0F231B021A4376
:1004800002820122D204032308461B038418216040
:10049000001D9842FADB62B610BD00000034005027
:1004A00080E100E0003300501548804715480047C0
:1004B00004207146084203D0EFF30980124908472F
:1004C000EFF308801049084704207146084203D022
:1004D000EFF309800D490847EFF308800B490847FF
:1004E00004207146084203D0EFF309800849084709
:1004F000EFF3088006490847FEE7FEE7FEE7000045
:100500005504002041040020D909002015050020D1
:100510008705002005221207518A80231943518242
:10052000114903680B6043684B6083688B60C36844
:10053000CB6003690B6143694B6183698B61C0695F
:10054000C8610A48836A0B62C36A4B62036B8B62A1
:10055000C36BCB62436B0B63806B4863908A8006EE
:1005600001D500BE7047FEE70018080000ED00E06E
:1005700002890889B249101A80B2884201D9012043
:1005800070470020704781692039897F082904D28B
:10059000AC4A8900515881617047FEE7AB48AA49CF
:1005A0000161AB494161AB498161AB49C161AB4973
:1005B0000162AB494162AB498162AB49C162AB495F
:1005C0000163AB494163AB498163AB49C163A9494D
:1005D0009E485C3140300160A8494160A849816073
:1005E000A849C1600120A849C0060860A749CA6996
:1005F0001202120ACA61A44980390860704710B516
:10060000A3490020086000F0F5FA01208007016B83
:1006100049004908016310BD1CB59E4901209E4E4A
:1006200008700825358002F017FF03F0CBF900F0C1
:100630001BFA9A48017801709948017801700120ED
:1006400002F010FF6F010D203946800102F010FF0B
:1006500001F090FA00F086FB00F01CFA042000F094
:10066000E8F8072000F0E5F80A2000F0E2F806209C
:1006700000F0DFF80B2000F0DCF8012000F0D9F8E2
:10068000022000F0D6F8002000F0D3F8854800687A
:1006900002F0F4FEE80601683943016000F014F945
:1006A00081480068AA2805D1142000F061FA1420BE
:1006B00000F06CFA02F01CF9FFF7A1FFA22005245C
:1006C0002407E08279484188E0229143A0314180AB
:1006D000012002F0D9FE02F0DDFE022803D002F074
:1006E000D9FE012807D13580A08A8006FCD4618A12
:1006F000802081436182022604252089000622D5BC
:1007000001208007006B00041DD402F0C9FEC00761
:1007100019D1042002F0CAFE019002F0CDFE01982A
:10072000002810D0002001905F480068AA2802D15C
:10073000142000F02BFA042101A802F0C3FE0028C7
:1007400001D000F07AFA72B601F03CFA69460870FE
:10075000042806D002280CD003280AD0012865D02E
:1007600065E053480078012802D00320087000E0BB
:100770000E70208A284320824E48C06901280878DC
:1007800011D9032849D102F0A3FE002845D002F078
:10079000A5FE002841D0032002F0A6FE00283CD090
:1007A0004548067008E0032837D102F09DFE002876
:1007B00033D041490120087034480169294301615F
:1007C000618A202291436182218A314321826946D4
:1007D00009780229618A22D0294361827F212288F7
:1007E000890180231A4322800022521CD2B20A2A95
:1007F000FBD3628A10231A436282304A491E516138
:10080000218880229143218028494A88BA434A801E
:1008100030BF0169A943016109E06846C1E7294386
:100820006182618A102291436182EDE730BF62B636
:1008300063E7C106C90E012088402149086070475E
:1008400030750000783A00209427030000840040AF
:1008500062B600DF28A30200704701DF1CCA020055
:10086000F8BD02DF40CB0200F5E703DF84D40200CD
:1008700004DF89B0BC330200F8BD05DFF8BD06DF38
:10088000EC0C030070BD07DF80E100E000ED00E04C
:100890008C03080000800020003300500000080096
:1008A000202A0800049000200C8000202000005026
:1008B00054020800E0010020C40608000080004047
:1008C00080E200E0704700003E480178002902D035
:1008D0008021417070473C49002008703B49C87036
:1008E000704738480178002902D081214170704753
:1008F0003549012008703549C87070473148017882
:10090000002902D08221417070472F4902200870CF
:100910002E490120C87070472A488178002904D0E8
:10092000491E0906090E817017D142780021002A5C
:1009300004D09207920F0270417004E00278002AFE
:1009400001D0521E02701206120E017005D0012A4B
:1009500002D0022A01D1D1E7C3E7704710B5194C84
:10096000A078401CA0702078002805D102F092FDEC
:10097000421CFFF7A9FF227010BD12490120C87068
:10098000704710490020C87070470E48C078704703
:100990000020EFF31081012282F310880522120754
:1009A0001289120605D40A48028901231A430281DA
:1009B0001846002900D0012181F3108870470548AE
:1009C000007870470180002054020800C606080025
:1009D000003300503E80002005221207118A0423B4
:1009E00019431182118A022319431182118940236C
:1009F00019431181174B01211960174B08211980E8
:100A0000518A802319435182144903680B6143685A
:100A10004B6183688B61C368CB6103690B62436977
:100A20004B6283698B62C069C8620D48836A0B633D
:100A3000C36A4B63036B8B63C36BCB63436B074925
:100A400040310B60806B4860908A800601D500BE03
:100A50007047FEE780E200E00033005040180800D5
:100A600000ED00E07047704710B505242407208A88
:100A7000022188432082A08A0007FCD5FFF78EFD63
:100A8000608A20210843608210BD0000A549002033
:100A90004860704770B505210907088930229043E6
:100AA0000881088980221043088108898008800015
:100AB000401C088108890823184308819A48048843
:100AC000144304804C8A9C434C820D894024254366
:100AD0000D810D8A0426B5430D828D8AAD07FCD5A4
:100AE000904E0025756005880126354305804589AF
:100AF000AE058E4D068801D52E4300E0AE4306803C
:100B000005887826B54328350580058806263543AF
:100B100005804D8A1D434D820388934303800A89D3
:100B2000A2430A814089800503D57F4905206031B1
:100B300088800120800701688215914301607C480C
:100B400001683F22520291434214891801600168F2
:100B500002031143016070BD0321764809028181BF
:100B6000082242800021491C9629FCD382807047CC
:100B700071494880088803221043088008880422AD
:100B80001043088067490120087070477CB5654CA8
:100B9000217800292DD068490A885207FCD4CA88D8
:100BA0000092898801911104019A89180091634982
:100BB0004843009902F09EFC0090002020700098AD
:100BC000A060009802F0A9FB054629465C4802F0A7
:100BD0005AFB0A2102F095FB02F0A6FBE0602846D2
:100BE00002F0B6FB574A584B02F08AFC02F0C4FBF5
:100BF00020617CBD10B54B484168AA2906D07C20F5
:100C00005249081880B202F081FC10BDC068192159
:100C10000903884200D900BEFF20EB30F0E770B531
:100C2000414C6088C006050F02F076FC61881E22E8
:100C300091436A001143618070BD10B544490120A1
:100C4000C863C86B0028FCD101208007C1694148F6
:100C50000268914201D20022026019238A1ADB0144
:100C60009A4212D3016002F05DFC3B4A118888422F
:100C700001D9411A00E0091A89B2182905D3108058
:100C8000012002F055FC02F059FC10BD08B52549C1
:100C900089684843314902F02DFC009008BD08B531
:100CA0002049C9684843800A009008BD08B51D491D
:100CB0004968002903D0FFF7E9FF009008BD02F062
:100CC00043FCFAE708B517494968002903D0FFF744
:100CD000E6FF009008BD02F03DFCFAE708B52049A8
:100CE00001204A695206D20F13D04A699206D20FE8
:100CF0000FD000220A610092FF225F32009B5B1C32
:100D000000939342FAD34969C907C90F02D002F090
:100D100027FC002008BD40183721C00009014018F9
:100D200070470000088000202000005000100000E4
:100D30000002004020300050001600500024F40053
:100D4000002474497B14AE47E17A443F011200004D
:100D5000C00000407C0408007804080040420F00F6
:100D60000010005030B58D4A8D49D005048880238D
:100D70001C4304808B4C65892D0701D4521EFAD286
:100D8000894C01222260894C0A882280884A49883D
:100D9000118001889943018030BD00207047704761
:100DA000704770470020704701218907086B0722B0
:100DB000104308637047704710B57F497D4808604D
:100DC0007E494C2008807D4B7D4A203B1A827E491B
:100DD0007C4848807E487D4901807C4919314180AA
:100DE000222141818121890001827A4941827A4907
:100DF00001837849113141837549784820318880D1
:100E000041217748090181807649C180754C1034B1
:100E1000C48101824182891C8182611FC182FF21BC
:100E200046310183704941837049592008806F48D9
:100E30006F4C20300480432444806E4C4C82D5217A
:100E40008180FF21D33101816B4941816B498181CF
:100E50006C496B48088059486B4960384180C188AB
:100E600010242143C18062490A390181534C6749EA
:100E7000403C61805A82082141814D485B4900888D
:100E800040390882494862490088088010BD4008FE
:100E9000704700B58BB05F4A42625F4A82625F4A28
:100EA00042615F4AC2625F4A02605F4A02625F4A11
:100EB00042605F4AC261404A3E48002110603E489D
:100EC0004038026B03129A430263426B1F231B04D8
:100ED0009A4303231B04D218426356480268C31284
:100EE0009A430260026803139A43026068464154C1
:100EF000491CC9B22829FAD3014628224E4802F0DB
:100F000035FBFFF759FF02F00DFB4C49088000202C
:100F100002F00EFB02F012FB0BB000BD10B5264A2A
:100F20000F2124480902106023484038426B1F23D8
:100F30001B049A4303231B04D21842630006026871
:100F4000D208D200026005200007028992089200B0
:100F5000521C0281028908231A430281028A0A4331
:100F6000028237480068002808D10E484189890567
:100F700004D501887822914308310180FFF71CFFD6
:100F80003048006B0078002804D02F4800880B49B7
:100F90006039C880012002F077FA10BDA0860100F8
:100FA000087F040020000050008000405602080026
:100FB0004A0308004C05540780000040602C005094
:100FC0007F7F0000AC2900000022005009090000CA
:100FD000002400502204000030D00000EE11000078
:100FE000002500502E020000442000004028005040
:100FF0000D95000002420000E4DC000010920000A9
:1010000053780000002A00508B1000009DD500008E
:10101000002600509B0D00209F0D0020A50D0020F4
:10102000A90D0020A10D0020B70D0020A30D002068
:101030008F0E002000020040200008007804080005
:101040000C800020200200205204080010B5044645
:1010500002F06CFC0C49A00040188038406B00285E
:1010600001D0804710BDE106C90E01208840074924
:10107000086010BD1320E9E71420E7E71520E5E735
:101080001620E3E71720E1E7C890002080E200E0A7
:1010900030B4724C71497248603408E043681A7881
:1010A0005B1C0A6002684360521E026005D0A28B7E
:1010B0009207D20FF2D130BC7047002242604B68D9
:1010C0000224A3434B6081680029F4D0826030BCC5
:1010D0000020084730B5614A93898024A343938157
:1010E000072313810023938095892543958193805D
:1010F0009380108091819089A04390815948A101EB
:10110000016059480268FF242402A2434C00224394
:1011100002605448803801605448016050480376AA
:101120000361C3604360036030BDD3E74B492220B5
:1011300008617047494922200861704708B547494E
:1011400001204A695206D20F13D04A699206D20F83
:101150000FD000220A610092FF225F32009B5B1CCD
:1011600000939342FAD34A69D207D20F02D02220C9
:101170000861002008BDE1E73848A021016141690C
:101180008906C90FFBD041694906C90FF7D07047DE
:10119000F2E7334B5A61D960186130480121426847
:1011A0008A430A4342607047F3E710B52C4CA260B3
:1011B00021606060FFF76CFF6068002805D0274958
:1011C0004868022290431043486010BDEDE710B517
:1011D000224881680907090F01291AD002291CD069
:1011E000042917D00C2914D11D4A117E012910D1D0
:1011F00041690906C90F0CD00021D16011618388B3
:101200005B085B0083805369002B02D00120516191
:10121000984710BD00F005F810BDFFF739FF10BD6D
:10122000D5E70F490D4808E002680B691A705B1C8E
:10123000CA680B61521ECA6004D04269D207D20F3D
:10124000F2D1704700220A6143685B085B0043608B
:101250004B69002BF5D000204A611847001100505F
:101260001C80002080E100E00CE400E080E200E06F
:1012700070B5EFF31085012080F31088264802F046
:101280007BF90446002D1DD0012080F31088002C2E
:1012900023D020462038C08B204988421DD1618947
:1012A000208902F06FF905000ED021461031A38984
:1012B00062892089A847002806D001280DD002287D
:1012C0000BD105E00020E0E7204602F061F904E0E0
:1012D000114821460C3002F061F9EFF3108401202F
:1012E00080F310880C480068002802D1012002F029
:1012F0005BF9002C03D0012080F3108870BD002022
:10130000FAE710B5BC21064802F054F9054901205E
:1013100002F056F910BD0000A8050800388300004F
:101320000406080071120020F8B50D46064681003B
:101330002B48EA884458521C20686B89018F294F3A
:1013400051430091014640314A89C989511A8AB2F4
:10135000991A89B2B94214D29A4212D0294602F09F
:1013600035F92D892049009802F0C4F82818801C0E
:101370004034E0823002401C80B2042102F02CF99B
:10138000F8BD2821304602F02DF9F8BDF8B5054624
:10139000870013480C46C059C9880068114E0246A0
:1013A00040325389D2899A1A92B28B1A9BB2B342B5
:1013B00011D20B4E8A420ED002F01AF9F0590522D2
:1013C0005F30611C02F0D2F82802401C80B2052177
:1013D00002F002F9F8BD2821284602F003F9F8BD11
:1013E0004C030800FF7F00001027000070B5164670
:1013F0000D46104602F002F9002869D0340A304642
:1014000002F0FCF8012812D0A87A1E2811D0294633
:101410000A310E2845D019DC801E030002F0F4F8D2
:101420000B255829582D58315839583D580002205D
:1014300070BD3146274802F0EDF80021204602F049
:10144000EFF80221304602F0C7F841E018283CD0FE
:1014500006DC102819D012282BD0162838D130E0FD
:10146000522822D0D22833D127E0204602F0DEF8DD
:101470002EE0204602F0E0F82AE0204602F0E2F8F2
:1014800026E0204602F0E4F822E0204602F0E6F8EA
:101490001EE0204602F0E8F81AE0204602F0EAF8E2
:1014A00016E0204602F0ECF812E0204602F0EEF8DA
:1014B0000EE0204602F0F0F80AE0204602F0F2F8D2
:1014C00006E0204602F0F4F802E0204602F0F6F8CA
:1014D000002070BD01280000F3B581B001980C46D2
:1014E0000102CA1D0E310223344802F0EDF80470E7
:1014F00001990546022732488E00002C06D0042CA4
:1015000016D0062C10D0072C3FD108E081590522B7
:101510004968897C114069708059C77335E0084675
:1015200002F0D8F8687030E080590F21C1732CE0C8
:10153000044680594068417C012902D1007E01287F
:101540000FD0019802F0CCF801210028A0590BD04F
:101550004268D07D00281CD001281AD004280DD064
:101560000FE0002068700DE04068C27D022A01D0C3
:10157000042A06D1007C02280BD102E0107C02284C
:1015800007D06F70A1590320C873284602F0AEF847
:10159000FEBD6970F6E701460A780120042A01D9E8
:1015A000002070474A78002A01D0012AF8D10A7930
:1015B000082AF5D849790829F2D87047021C00009A
:1015C00028050800FFB589B00D4600206946059042
:1015D00008720B98000A009002F082F807460B98F8
:1015E00002F00CF800287DD00B982978000A8400BE
:1015F000764E01295ED0042904D0062943D007295C
:1016000063D120E0687800281BD030591022406850
:10161000A91C01F0ABFF002F06D03159C87B03286D
:1016200007D0042808D050E03059C07B032803D0ED
:101630004BE00B20C87348E00521009802F05CF8ED
:1016400043E00120B6E03059C07B0E283DD1009820
:1016500002F040F8002103E02A18401C9170C0B24B
:101660001028F9D3688A69460883294606A8082203
:101670001431023001F07AFF06ABAA1C39460098FB
:1016800002F040F821E03059C07B0F281DD1AA1C80
:101690000A21009802F03CF8002F04D03946009847
:1016A00002F03CF811E000231A463946009802F097
:1016B0003BF80AE0012F08D10B9801F09FFF0128A9
:1016C0001CD0002801D0022005906846007A00282E
:1016D00011D002AA0521009802F01AF86846027A91
:1016E000602000E007E002436846027201233946A9
:1016F000009802F019F805980DB0F0BD3059C07B84
:101700000228E2D16878002851D002210B9801F01C
:1017100063FF305907224068A91C173001F026FFEB
:10172000E878002804D130594068407C01283AD03C
:10173000009801F0FFFF002837D0297A009801F0C7
:10174000FFFF002833D0009802F000F80121009834
:1017500002F002F800282CD030594068417E002960
:101760002BD0042929D0C17E027D1140C176305989
:101770004068017F427D114001776846007A002869
:10178000A7D13059022142680098173201F0C0FFFA
:10179000305941684031897B002913D004210098D9
:1017A000FFF79AFE91E7022004E0062002E00820FD
:1017B00000E00320694608728BE70021C1763059AA
:1017C0004068D9E70B21C1737FE7000028050800B6
:1017D00070B50446007800250D2801D00A2200E0EB
:1017E00002225A494B7A002B06D00D2804D0637C84
:1017F000032B01D0432551E0097A8A4339D10D28C2
:1018000009D00E2802D00F2803D134E0607C0328D1
:1018100004D3402542E0607C0328FAD8A07C042849
:10182000F7D20A2908D0607C012822D0022820D0D3
:101830006078032809D811E001F094FF012806D14F
:101840006078032803D0002801D0492526E001F064
:1018500089FF002802D160780228F6D83020035D85
:1018600022462046E17C3132143000F019F805465A
:1018700014E0422512E001F075FF012807D16078DD
:10188000052804D1A01D01F073FF0028DDD001F070
:1018900069FF002802D160780228D6D8284670BD9A
:1018A000FFB5002086B001216A46117004460591FB
:1018B0000021002C06D0089D099A1F239A4234D992
:1018C000402032E01C23069D079AF7E76B185E78EC
:1018D000330001F099FE1D2610101010101010108A
:1018E00010262626262626262626262626261010DA
:1018F000101010102600059B03E06F46FF5CB742F6
:1019000004D05B1E5BB2002BF7DA03E0002B01DB97
:101910004A2006E0059B6F46FE54059B5B1CDBB22C
:1019200005936B5C491C5918C9B2914201D2002839
:10193000CCD0914202D04A200AB0F0BD641CE4B27F
:10194000022CF9D20028B3D0F6E700009805080071
:10195000F8B50C469449164609680125002702226D
:101960008B1C312873D012DC0C2874D008DC0128C1
:1019700021D0022840D007284FD00B2869D156E04B
:1019800010287FD0112876D01228F7D18DE00123BE
:10199000412871D008DC32286FD035286ED0362827
:1019A0006DD04028EAD1B1E0422869D0432868D000
:1019B0004428E3D1CFE006227C497D4801F0DEFED9
:1019C000002808D006227A49304601F0CFFD0620D3
:1019D00020700020F8BD744801680878C00738D02E
:1019E0002078062801D22770C2E0062298313046BE
:1019F00001F0BCFD06200EE00A786B48920728D55E
:101A000022783E2AEFD305464A7E5A31304601F00D
:101A1000ADFD2868407E2070A7E00878400718D503
:101A200020780228DFD3887C3070587C78E00A78F0
:101A30005D4812070DD52278202AD4D30546CA7DE9
:101A40001A31304601F092FD2868C07DE3E735E0A9
:101A500001E077E016E00A785348D20672D5227882
:101A6000202AC0D305460A7E9831304601F07EFD1B
:101A70002868007ECFE70EE054E028E034E03BE049
:101A800058E060E00878800670D520780428AAD352
:101A90000422091D23E00878400667D52078002835
:101AA00066D0087D08E022705FE0087800065DD50A
:101AB000207800285CD0487D3070F4E70888C005A5
:101AC00054D5207804288ED304220C3107E00888EE
:101AD00080054BD52078042885D304220831304670
:101AE00001F044FD042096E7088840053ED52078A3
:101AF00000283DD0887D36E00888000536D520785E
:101B000002288FD3087C3070487C09E00888C00424
:101B10002CD52078022885D38231087F3070487F09
:101B20007070C0E70888800420D5207800281FD076
:101B3000A03117E00888400418D52078002817D075
:101B4000A1310FE012E0088800040FD520780028AA
:101B50000ED0A23106E00868C00307D5207800281F
:101B600006D0A33108783070237000252846F8BDD0
:101B70000425FBE770B50F480F49C405228880256E
:101B80002A4322800D4A53891B0701D4401EFAD2F2
:101B90000B4A012010600622054801F0E7FC20886E
:101BA000A843208070BD0000C0060800383E030036
:101BB00038800020A0860100D47F0400200000505F
:101BC00000800040F0B5554D85B000266869374665
:101BD0000190FEF7DAFE0021514C002802D1207955
:101BE000022800D101914F4802684F48002A0FD1C6
:101BF0000278002A0DD04D4B0122DA63DA6B002AFD
:101C0000FCD101229207D2691923DB019A420ED33B
:101C1000017001F0B9FD00287DD0E0780126002890
:101C200079D005200007808AC00701D0042672E021
:101C300001F036FC00286ED13D4800683F2804D1F1
:101C40002079002801D128690190A17801A801F02C
:101C5000A1FD00285FD0A17801A801F033FC002885
:101C600059D0334800683F2803D101F099FD00287E
:101C700051D02C480068AA281DD0972007210125A3
:101C8000AD07EA6B920A92027F1C3A43EA63EA6B61
:101C9000284B80021A400243EA63E86BC002C00A84
:101CA00049050843E8631F4804260068002807D058
:101CB000AA280ED01CE02048FEF7F8FF0321DEE73B
:101CC00001986421C00201F015FC401E0BE00121C7
:101CD0000CE0019801F021FB1849096801F096FA1F
:101CE00001F022FB009021790029F0D101F05EFD86
:101CF0001348C06A8047286B0004C00FFBD011480E
:101D00000168C905FCD501F057FD052000070189D0
:101D1000802291430181304605B0F0BDA002002031
:101D2000C60608000C80002000800020C000004093
:101D300060010020FF03E0FF011200001880002076
:101D40001C0708000002004010B50124A407A06B86
:101D5000FEF7B8FF5F4901F0CDFB27221201511AAF
:101D600000D101215C4A50601160206B082188433A
:101D70000843206310BD38B5002000905749082063
:101D800008800524240721883020014321802188F0
:101D900003221143218002E000BF00BF00BFA18ADF
:101DA0000906F9D561898908890061814C494A8809
:101DB000520852004A80218881432180208880086F
:101DC00080002080A08A400701D5FEF74DFE2089C3
:101DD000802108432081208A042188432082A08A10
:101DE0008007FCD53F4841050268D20202D40A6947
:101DF000520702D4009A002AF6D038BD10B501F07F
:101E0000E1FC01F0E5FC10BD10B501F0E7FC052098
:101E10000007418A80229143418230480189490864
:101E200049000181304800683F2801D101F0DCFC05
:101E300001208007816904221143816101F0DAFCED
:101E400001F0DEFC01F0E2FC28480068AA2802D17B
:101E50001420FEF78DFE26490020087010BD10B535
:101E600001F0DAFC10BD10B501208007008A0007E0
:101E700004D501F0D7FC1E490320087010BD70B5D1
:101E80001C48008885061748AD0E44681648C030C7
:101E9000006B0078002802D1284601F0C9FC1648E2
:101EA0000089134EC00507D520060BD5E00709D0E1
:101EB000284601F0C3FC03E0200603D5E00701D06B
:101EC00002203070200403D5E00501D501203070D8
:101ED00070BD00007102000040000040003300505F
:101EE0002000005000020040600100200C80002013
:101EF0003E80002000200050002C005010B514211E
:101F0000244801F0A1FC24491C2001F0A3FC00217D
:101F10001C2001F061FB10BD30B5034601200021FB
:101F200003241A46CA40D20704D04D006D1C224635
:101F3000AA401043491CC9B20929F2D330BD024658
:101F40000020122901D98D207047062A06D0072AC1
:101F500007D0082AF8D10729F5D170470829F2D10E
:101F600070470629EFD3704770B50A4C05462188A3
:101F700002231C22094801F0A7FB058001F0B6FBF3
:101F80002089002101F06CFC01211C2001F024FBC0
:101F900070BD0000DC900020CC3B002004700000ED
:101FA000FEB55B4D1C2068801E4614460888FFF76E
:101FB000B3FF029057482B460A330190132202A91F
:101FC0000094981E01F052FC040008D128890021D9
:101FD00001F046FC044601211C2001F0FDFA01231A
:101FE0001C2231464C4801F06FFB047001F07EFB6F
:101FF0000020FEBD70B50C4645490B8020780828AE
:1020000014D80A890A31415C51188DB2822D0BD047
:102010006178FFF794FF010009D16D1C6178A8B2C7
:10202000A21C01F029FC08E0822100E081213A4B4A
:1020300037485B1CDA1C00F073F8002070BD70B5E7
:102040001D460C46088801F01DFC314AFF2810711E
:10205000158009D0A178108901F002FC02211C2012
:1020600001F0BAFA002070BD2B4B89219B1C9A1CF1
:10207000274800F055F8F5E710B5254A180A1279F7
:10208000904202D10888FFF76FFF002010BD70B5A5
:1020900086B00C461421684601F08CFA1C4D20884D
:1020A0002989411A02291BD123460833A288618855
:1020B0001E4601F0EDFB2188A879002201F0EEFB1D
:1020C00062883146684601F051FA6188134C6A46CD
:1020D000204601F0D1FB22460021284600F036F8C8
:1020E000002006B070BD10B586B00C4614216846BD
:1020F00001F060FA064920880989401A022804D1B3
:10210000064A0021024800F021F8002006B010BD68
:10211000DC900020B83A002001700000292A00005D
:10212000F8B514460F461E46054642880188062328
:10213000204601F0C9FA0446287901F0B5FB208059
:1021400027716680204601F0D1FAF8BD70B51446BB
:10215000428800790D4601020C310423274801F022
:10216000B3FA002D01D0132100E012210170448048
:1021700001F0BCFA70BD0A880270120A42708A78B7
:102180008270CA78C2700A7902714A79427189797B
:102190008171072070474278037812021A430A803F
:1021A00082788A70C278CA7002790A7142794A715B
:1021B000807988710720704710B5FFF79FFE00F007
:1021C0001FF810BD70B5064615460C461C2001F0E0
:1021D00015FA022805D1E2B21C232946304601F047
:1021E00069FB362001F00AFA022805D1E2B2362353
:1021F0002946304601F05EFB70BD00000D30000046
:1022000010B50A213A4801F01FFB3A49362001F087
:1022100021FB0021362001F0DFF910BD70B5344CF0
:102220000021E08801F01CFB21880223362232487D
:1022300001F04AFA0546207901F036FB288028464D
:1022400001F054FA0121362001F0C6F970BD70B5D5
:102250000D460146284803233622801C01F034FA3B
:1022600004462348007901F01FFB2070000A6070CB
:10227000A570204601F03AFA70BD70B50D460146D2
:102280001D4803233622001D01F01EFA044618489B
:10229000007901F009FB2070000A6070A5702046EB
:1022A00001F024FA70BD70B50D46014612480323B3
:1022B0003622801D01F008FA04460D48007901F02D
:1022C000F3FA2070000A6070A570204601F00EFA43
:1022D00070BD70B50D4601460748144602233622EC
:1022E0000C3001F0F1F90570447001F0FFF970BD98
:1022F00040800020303C002001D80000FFB589B0AC
:102300000521C90268468182C91C0182F8490183FE
:10231000F84C362161800521A82500910722002371
:1023200001953621A01D01F0CBFA05007DD1A01D3D
:102330000125009501900222E08805AB114601F0CD
:10234000C5FAE088EC4A022101F096FA03AF019742
:102350000095E08804AB0222132101F0B7FA02AE27
:10236000092001960090E088E44B1022052101F03D
:10237000ADFAE2496846C91E007A48706846407A5C
:1023800088700A4668461321808901F075FA019722
:102390000095E08804AB0222132101F097FA09208E
:1023A00001960090E088D64B1022112101F08EFAA0
:1023B000D3496846C91E007A48706846407A8870DA
:1023C0000A4668461321808901F056FA0197009564
:1023D000E08804AB0222132101F078FAC948019683
:1023E0000090E088C84B1022072101F06FFAC6491F
:1023F0006846C91E007A48706846407A88700A4666
:1024000068461321808901F037FA0920019600906F
:102410000222E08806AB114601F058FA01970095B8
:102420000222E08804AB132100E03EE001F04EFA06
:1024300001960095E088B54B1022142101F046FA70
:10244000B2496846C91E007A48706846407A88706A
:102450000A4668461321808901F00EFA019700951B
:10246000E08804AB0222132101F030FA01960095B6
:10247000E088A74B1022142101F028FAA4496846ED
:10248000C91E007A48706846407A88700A466846D5
:102490001321808901F0F0F90546E088002101F060
:1024A000DFF90121362001F097F8012336229948FF
:1024B0000C9901F009F9057001F018F900200DB030
:1024C000F0BD70B586B00D461E461421684601F079
:1024D00071F8884C2680288801F0D4F92071FF28F3
:1024E00035D0A978E08801F0BBF9E0886A46801C05
:1024F00080B2052101F0C0F9E0886A46001D80B273
:10250000112101F0B9F9E0886A46801D80B20721E7
:1025100001F0B2F9E0886A46C01D80B2022101F0E4
:10252000ABF9E0887C4A093080B2142101F0A4F9AB
:10253000E088794A0B3080B21432142101F09CF902
:102540000221362001F048F8002006B070BD714A23
:102550001B23DB02521C89216648FFF7E1FDF3E7EC
:10256000F8B50C46002069460880624907460A799A
:10257000180A90427ED12246C98808322088531C0E
:1025800000935C4B8D1C1B88A84240D161880529B3
:1025900003D00D273A46002142E096781546082ED2
:1025A0000FD82E7836070CD16E78002E0BD0012E66
:1025B00009D0802E07D0812E05D0822E03D0832E05
:1025C00001D08127E6E701F057F9E07900282AD009
:1025D0004848072301884F483622C01E01F074F88E
:1025E00006464448007901F05FF93070000A7070C7
:1025F0002878B0706878F070A87830710098C17849
:102600008278080210437071000AB07162E00D1DFB
:10261000A84263D16188112906D00D273A460121CD
:102620001846FFF756FEAAE096781546902E08D871
:10263000EE78502E05D8AE7A082E02D2AE79042E4E
:1026400001D98127EAE701F017F9E079002844D0A1
:102650002848132301882F483622801E01F034F8C1
:1026600006462448007901F01FF93070000A7070A6
:10267000287800E08CE0B0706878F070A87830714D
:10268000E87870716879297900020843B071000A0E
:10269000F071A8793072E8797072287AB072687A2D
:1026A000F072A87A30730099C87A8B7A02021A43C2
:1026B0007273120AB2734A7B0B7B12021A43F273D3
:1026C000120A3274CA7B8B7B11021943701C71741D
:1026D000090A4174304601F009F850E0054EC91D61
:1026E00088424BD16088022818D00D2747E00000AF
:1026F00002290000408000202C3C0020733D002077
:10270000863D002041020000993D0020AC3D0020A4
:10271000BF3D00200CD80000F090002025896846BD
:102720000580032D01D9812729E06E48E907007A49
:1027300002D00121084301E0400840003072A807A0
:10274000307A02D50221084301E0FD2108403072B1
:102750006188208801F090F8E07900280FD0614866
:10276000042301883622604800F0AEFF06465D482B
:10277000007901F099F830807580ABE78027A07967
:10278000012805D15748218800793A4601F086F89A
:102790000020F8BD30B587B00D461C4614216846B0
:1027A00000F008FF68460590200A4E4C21798842C7
:1027B00016D1E08829880B30884211D180B205AA51
:1027C00006A901F089F8059A107CC10708D04008D5
:1027D00040001074E08814210B3080B201F04CF8F6
:1027E000002007B030BD10B50878122801D013289A
:1027F00004D13C4849780088FFF729FD002010BD2E
:10280000FEB50020374D009001901F460C46012672
:10281000287901F049F86178227809021143884249
:1028200025D1E0786946087000A80622211D0130F4
:1028300000F09CFEA078002800D00226E8886A46B6
:10284000801D80B2072101F017F8287A864301D055
:102850008A210DE0E888801D82B2A078002801D08E
:10286000012100E000211F48FFF770FC03E08121F7
:102870003846FFF7ECFC0020FEBD10B51C461422C4
:102880001A4800F073FE1748184AC088142109300E
:1028900080B200F0F1FF01462046FFF7EEFC002079
:1028A00010BD10B511481C46891C1422143000F0CC
:1028B0005DFE0C480D4AC08814320B3080B21421E2
:1028C00000F0DAFF01462046FFF7EDFC002010BDC6
:1028D00010B50449180A0979884201D1FFF79EFC16
:1028E000002010BD4080002008D80000F09000209B
:1028F00038B50124684604700C21494800F0A4FF53
:10290000474D6946EC702A1D352000F0EBFF00288A
:1029100000D02C7100F030FA4249322000F09AFFCA
:102920000021322000F058FE00F0B2F838BD10B59A
:1029300000F0BBFA10BD10B539480223807832226E
:1029400001020E31384800F0BFFE01210170132151
:10295000417000F0CBFE10BD10B5044630482C236A
:1029600080783222010230480E31801E00F0ACFE29
:1029700001462030047200224272084600F0B6FE82
:1029800010BD10B5502332220D21284800F09CFEC6
:10299000044600F014FA204600F0A8FE022132207E
:1029A00000F01AFE10BD214810B5012332220D217E
:1029B0000B3800F089FE0221017000F097FE10BD77
:1029C00010B500F086FA10BD194B10B59A4201D926
:1029D0001A4602E0002A00D1012200F089FF10BD52
:1029E000F8B50646114815460F46252332220D211B
:1029F000C01C00F069FE0446012020772046062214
:102A000039461D3000F0B2FD23200655658225822F
:102A1000204600F088FA204600F068FEF8BD00006D
:102A20004C800020B03C0020043800000E34000030
:102A30003075000010B500F061FF254900F064FF1B
:102A40002448081810BDF8B5234D0646A876002482
:102A500000F054FF2919641CE4B20874082CF7D361
:102A600000241027381BB04201DD002007E000F0F1
:102A700045FFC117090E0918090A0902401A28550D
:102A8000641CE4B2102CEDD300F038FF2883F8BDAD
:102A900010B52421104800F0D7FE00F06EF910BDEB
:102AA00010B50E4802238078322201020E310C4804
:102AB00000F00AFE0D21017007492031897841702C
:102AC00000F014FE0321322000F086FD10BD00004E
:102AD000A0BB0D00A0860100588000204C80002083
:102AE0001A38000010B5084609781C460B0000F0A3
:102AF0008BFD080520202008181B1E2000F016FA68
:102B000017E04178012904D0002902D0022903D01E
:102B10000FE000F025FA0CE01146204600F06BFAB9
:102B200007E000F03BFA04E000F039FA01E000F0C1
:102B300037FA002010BD10B50878304C801E030015
:102B400000F062FD020214188878A070C0070AD055
:102B50002B492A4A4879203AD07628480622891DEE
:102B6000001F00F003FD00F041FA03E0FFF7E3FE71
:102B70000020A070002010BDF8B518460D46014693
:102B80001223204800F0A0FD0446284600F02FFA4A
:102B90000027002821D0194EB078C0071DD030463C
:102BA0000822A91C103800F0E9FD002815D1304694
:102BB0002038018B2A8891420FD101212170807E1B
:102BC0006074314610222039601C00F0CFFCB078D0
:102BD000FFF7C2FE00F00EFA00E02770204600F07A
:102BE00085FD2078002801D1FFF7A5FE0020F8BD63
:102BF00010B500F0FEF9002010BD00007880002024
:102C00004C8000201838000010B5104600F0F6FC8B
:102C1000002809D1012332220D21484800F054FD3B
:102C20000121017000F062FD002010BD70B5087830
:102C300015460F282DD008DC01280DD002282CD0F5
:102C400003281CD00E2830D11FE0102825D01128D1
:102C500023D0122829D123E04878002825D13748ED
:102C6000222332220D21801C00F02EFD0446014655
:102C7000284600F02FF9204600F038FD15E048788E
:102C8000002812D100F03AF90FE0487800F044F93A
:102C90000BE0487800F041F907E000F043F904E068
:102CA0004878442801D100F040F9002070BD70B58B
:102CB0001C4610460D4600F0A1FC022805D1204913
:102CC000200A8870284600F059F8002070BD70B5C1
:102CD000087815460C460A2810D1104600F08EFCE4
:102CE00004280BD16078002802D000F013F905E029
:102CF0000521284600F070FC00F00DF9002070BDA1
:102D000010B5104600F0C5F8002010BD10B51046F3
:102D10000C4600F073FC012808D12078002805D16A
:102D2000FFF705FE002801D000F0F8F8002010BDE4
:102D300010B5084600F0F8F8002010BD023400007D
:102D40004C80002010B5012332223621B54800F016
:102D5000BBFC00F0CBFC10BD10B5362104233222A1
:102D6000880200F0B1FCB04909880180012181701E
:102D7000C17000F0BBFC10BD7047704770B5AA4C25
:102D80000546A078FF2817D0208800F07BF9FFF7D0
:102D9000E3FF0521322000F01FFC28882080687A9C
:102DA0006071294606220A31A01D00F0DFFB9F4812
:102DB0008078FFF7D1FD70BDFFF7E3FD70BDF0B582
:102DC000044693B00E202070002565709848A081BD
:102DD000E08107202074012060741C20E0742746E5
:102DE00022461F202037143238741646511E0B20FD
:102DF00000F078FD002805D02A46E5748DA1304604
:102E000000F0B4FB22463132511E0C20119200F02A
:102E100069FD002805D03D742A4688A1119800F06C
:102E2000A5FBE07C1A21081A45B2002D2FDD3E20BB
:102E30006946087001AA022000F054FD002806D05F
:102E40000D22684602707EA101A800F063FD68466D
:102E5000007800281BD0A84200D2054668460570BD
:102E6000E07C6D1C8555E27C20460921153011540B
:102E7000E17C401C0B186846027801A9184600F056
:102E800075FB68460078E17C801C0818E07413B07C
:102E9000F0BD10B500F0B2FB032803D0052801D027
:102EA000042801D1FFF76DFD10BD70B500246849FD
:102EB000022008705C4DE878022807D2012801D171
:102EC00000F0D3F8E878401CE87000E001242046C8
:102ED00070BD7047032008700A20487000204882A7
:102EE000087548751722CA8208220A8310224A836D
:102EF00088836422CA8320310870704710B501218D
:102F0000322000F069FBFFF712FD002801D0FFF727
:102F100038FD10BD704770477047704710B5FFF718
:102F200030FD10BD704770477047704710B53E4880
:102F30001E238078322201020E31464800F0C4FB85
:102F4000012101704170C170102242710322827010
:102F50000171002202728171C17100F0C7FB10BDC6
:102F60001FB53DA30FCB6C460FC42F481E2380789E
:102F7000322201020E31374800F0A6FB04463448E5
:102F8000102244606946A01C00F0F0FA0420207072
:102F900001206070204600F0A9FB1FBD70477047FC
:102FA00070B505461E2332220E212A4800F08CFB04
:102FB00004466878FFF747FD072020701B49012071
:102FC00060702039887E2077088B60822046082236
:102FD0001031143000F0CAFA144910222039A01C14
:102FE00000F0C4FA204600F081FB70BD704701205C
:102FF000704770477047704710B510460C4600F098
:10300000FDFA012809D1322201231146900200F075
:103010005BFB2178017000F069FB002010BD0020EF
:10302000704700000BD800004C8000207880002002
:103030004C040000070103180000000002FF00001C
:10304000444131343538302054454D504C00000057
:10305000189100201438000000010203040506073F
:1030600008090A0B0C0D0E0F704710B51C21022326
:103070003222880200F028FBFF217431018000F029
:1030800035FB10BD10B50446042332221C2105482F
:1030900000F01AFB0480012181700021C17000F052
:1030A00025FB10BD03700000FEB510460D4600F074
:1030B000A5FA01287ED12878002879D10E23322262
:1030C0001C21434800F000FB0446002020700B2721
:1030D00067703A463FA1A01C00F048FA204600F075
:1030E00005FB0A2332221C21394800F0EDFA044680
:1030F0000120207007206070024639A1A01C00F05A
:1031000035FA204600F0F2FA0B2332221C21304817
:1031100000F0DAFA0446062020700826667032466F
:1031200031A1A01C00F022FA204600F0DFFA0E23A5
:1031300032221C21264800F0C7FA044605202070E0
:1031400067703A462BA1A01C00F010FA204600F050
:10315000CDFA09270C2332221C211D4800F0B4FAB5
:1031600004460420207067703A4625A1A01C00F098
:10317000FDF9204600F0BAFA0A2332221C21144835
:1031800000F0A2FA04460670072060700120A070CB
:10319000D221684601800B21C901418071018180E3
:1031A00006226946E01C00F0E1F9204600F09EFA94
:1031B000012300E008E032221146900200F084FA78
:1031C0002978017000F092FA0020FEBD00207047BF
:1031D000027000004469616C6F672053656D69007F
:1031E0004441313435383000123456FFFE9ABCDE8B
:1031F00000000000765F332E35302E312E3534003E
:10320000765F332E302E362E30000000024670B529
:103210004A40D30FDB0740002DD04A002AD0010ED0
:10322000140E091900021202400A520A8418E5011C
:1032300004465443000A120A2E045043A4194219AA
:10324000200CC543AA18120C01257F39521CAD036E
:1032500052191204240400D0521C104301D440001F
:10326000491EC2B20C06C0092018401C4008802A22
:1032700002D003E0002070BD40084000002900DAC1
:103280000020184370BD70B502464A40D50F40007B
:103290004A00ED0740085208002814D0002A12D036
:1032A000C40DD30D41020120C0055202490A520A41
:1032B000E41A091812187D34914201D3641C00E00D
:1032C0004900002C01DA002070BD0023914201D397
:1032D000891A0343400849000028F7D100290AD081
:1032E000914202D10121C90705E0914201D2012199
:1032F00001E00121C943E005C018401900F058F869
:1033000070BD420005D04200120E52428A4201DBDB
:1033100000207047C9050818704710B50022962391
:10332000114600F04DF810BD410040020122400A54
:10333000D205090E80187F2901DA002070479629EE
:1033400003DC9622511AC84070479639884070476E
:10335000C20FD207400040080BD0C10D0723DB018C
:10336000C91840020905400A1143C2084007114329
:103370007047002001467047CB0FDB07490010B5AE
:10338000490802460A4307D00A0D07240903E4014D
:10339000090B121B002A01DC002010BDC900440FDC
:1033A0000C43C100E018D205801800F001F810BDF0
:1033B000002904DA401C490001D140084000704750
:1033C00070B40024050C05D11024000402D100299A
:1033D00022D01124050E01D108340002050F01D1BD
:1033E000241D0001850F01D1A41C8000002801DBF1
:1033F000641C4000002908D020252E1B0D46F540F6
:10340000A14000D00121294308431B1B0106DB1DFD
:10341000000A002B02DA002070BC7047DB05181888
:1034200080180029F8DA401C4900F5D170BC40082A
:1034300040007047064C0125064E05E02046E36833
:1034400007C82B4398471034B442F7D3FCF7FCFF6E
:10345000403D0020703D002003B40148019001BDB3
:10346000551B020003B40148019001BD0F3B03004E
:1034700003B40148019001BDCF2B030003B4014800
:10348000019001BDCB2C030003B40148019001BDA4
:103490000990020003B40148019001BD1F21020000
:1034A00003B40148019001BDC12D030003B40148DC
:1034B000019001BD0921030003B40148019001BD41
:1034C000C92D030003B40148019001BD2B6902001E
:1034D00003B40148019001BDEB31030003B401487E
:1034E000019001BD3D32030003B40148019001BDCC
:1034F000D721030003B40148019001BDA73A03009E
:1035000003B40148019001BD913B030003B401489D
:10351000019001BD2F2F030003B40148019001BDAC
:10352000998F020003B40148019001BD938F0200FE
:1035300003B40148019001BDCD8C020003B40148E1
:10354000019001BD418F020003B40148019001BD0B
:103550002768020003B40148019001BD39680200E8
:1035600003B40148019001BDB780020003B40148D3
:10357000019001BD213B030003B40148019001BD4E
:10358000BF22020003B40148019001BDEB260300F5
:1035900003B40148019001BD3524030003B4014880
:1035A000019001BD2F22020003B40148019001BD2A
:1035B000DD20030003B40148019001BD533B03002B
:1035C00003B40148019001BD9D20030003B40148EC
:1035D000019001BD3350020003B40148019001BDC8
:1035E0003126030003B40148019001BD5548020093
:1035F00003B40148019001BD1F50020003B401480B
:10360000019001BDB326030003B40148019001BD40
:10361000FD3D030003B40148019001BDA52803004E
:1036200003B40148019001BDD5AF020003B40148C5
:10363000019001BDA1A5020003B40148019001BDA4
:10364000E3A5020003B40148019001BD87A8020070
:1036500003B40148019001BDA7A9020003B40148C9
:10366000019001BD93AA020003B40148019001BD7D
:1036700095AB020003B40148019001BDF9AB020013
:1036800003B40148019001BD69AC020003B40148D4
:10369000019001BD17AD020003B40148019001BDC6
:1036A00077AD020003B40148019001BDF1AD020005
:1036B00003B40148019001BD85AE020003B4014886
:1036C000019001BD11AF020003B40148019001BD9A
:1036D000B123030003B40148019001BD49E5020094
:1036E00003B40148019001BDF9E3020003B40148AD
:1036F000019001BDE123030003B40148019001BD25
:103700004BCD020003B40148019001BD99D10200E4
:1037100003B40148019001BDABD0020003B40148DD
:10372000019001BD69D0020003B40148019001BDC0
:1037300077CF020003B40148019001BD01CC020023
:1037400003B40148019001BD29CC020003B4014833
:10375000019001BD15D2020003B40148019001BDE2
:103760008DD2020003B40148019001BD7F0C03001B
:1037700003B40148019001BDAB0C030003B4014840
:10378000019001BD773B030003B40148019001BDE6
:103790007920030003B40148019001BD21290300F1
:1037A00003B40148019001BDD990020003B401485F
:1037B000019001BDC768020003B40148019001BD3A
:1037C0000D2C030003B40148019001BD1531030025
:1037D00003B40148019001BD1B66020003B4014817
:1037E000019001BD652C030003B40148019001BDA7
:1037F000F793020003B40148019001BDDB2E0300E2
:1038000003B40148019001BD231D020003B4014827
:10381000019001BDC32C030003B40148019001BD18
:103820003B66020003B40148019001BD2B66020013
:1038300003B40148019001BD038D020003B40148A7
:10384000019001BDCF8F020003B40148019001BD7A
:10385000533B030003B40148019001BD87250300D9
:1038600003B40148019001BD7B9C020003B40148F0
:10387000019001BD459F020003B40148019001BDC4
:103880006D9B020003B40148019001BDB7E3020043
:1038900003B40148019001BD2B9B020003B4014811
:1038A000019001BDF3AF020003B40148019001BDD6
:1038B000E3E3020003B40148019001BD95E3020077
:1038C00003B40148019001BD9598020003B401487A
:1038D000019001BD9599020003B40148019001BD1A
:1038E000A59B020003B40148019001BDD12903004A
:1038F00003B40148019001BD2528030003B4014829
:10390000019001BDFD3A030003B40148019001BDDF
:10391000D33A030003B40148019001BD213B0300E9
:1039200003B40148019001BD8D3D030010B5244C46
:10393000E38901221338114681408B43C80701D027
:10394000002038E0880701D5012034E0480701D580
:10395000022030E0080701D503202CE0C80601D57D
:10396000042028E0880601D5052024E0480601D57A
:10397000062020E0080601D507201CE0C80501D577
:10398000082018E0880501D5092014E0480501D574
:103990000A2010E0080501D50B200CE0C80401D571
:1039A0000C2008E0880401D50D2004E0480401D56E
:1039B0000E2000E00F2082401343E38110BD000081
:1039C00000140050FEB50020214E0346282200219D
:1039D000424392198C00491C13510A29FADB401CFE
:1039E0000428F3DBFDF73EF819480022083802608E
:1039F00042601546002417486900475A0120A0403C
:103A000080B207421CD0282068438019A10040588A
:103A1000411C19D0002810D0C1172246FFF780FFA3
:103A20002A01FFF77DFF0A4B083B1A685B681043C9
:103A3000074A1943083A10605160641C0A2CDDDB08
:103A40006D1C042DD6DBFEBD0095019400BEE3E79E
:103A500028900020AE3A002002E008C8121F08C1DA
:103A6000002AFAD170477047002001E001C1121FFF
:103A7000002AFBD17047000071050020ED130020E3
:103A8000D914002097150020C51500202913002007
:103A90008D130020D11700200101000A04280A0418
:103AA0000203AA0055032A00A001FFFF2C01FF001A
:103AB0003F00FF03FF010000002801000200020098
:103AC0009C3B002003280900050005009E3B0020C8
:103AD000292A09021200000000000000032801004A
:103AE00005000500A33B0020242A0100120000006D
:103AF000000000000328010005000500A83B00208D
:103B0000252A010012000000000000000328010027
:103B100005000500AD3B0020272A0100120000002F
:103B2000000000000328010005000500B23B002052
:103B3000262A0100120000000000000003280100F6
:103B400005000500B73B0020282A010012000000F4
:103B5000000000000328010005000500BC3B002018
:103B6000232A0100080000000000000003280100D3
:103B700005000500C13B00202A2A010012000000B8
:103B8000000000000328010005000500C63B0020DE
:103B9000502A010007000000000000000A1806007B
:103BA00000292A020100242A020200252A02030019
:103BB000272A020400262A020500282A02060023DA
:103BC0002A0207002A2A020800502A000C3C002082
:103BD000243C00203F800020030001000070000012
:103BE000A11F002002700000F51F002003700000DC
:103BF0003F20002003380000792000200E30000014
:103C00008F20002012300000E7200020DC3B002045
:103C100001000000E43B002002000000FC3B00200B
:103C200002000000F43B002001000000FEFF000045
:103C3000903C0020A83C00204A80002003000100A6
:103C40000BD80000FD22002004D800007B280020B3
:103C500006D80000A328002000D80000C3240020BC
:103C60000E30000061250020123000009527002052
:103C700000300000E727002002D8000001280020C3
:103C800006D80000A328002003380000D128002017
:103C9000403C002001000000483C002003000000E0
:103CA000603C002005000000883C0020010000006E
:103CB00000000000383D00207C800020060001004C
:103CC00001340000092C0020003400002D2C0020BD
:103CD00000380000CF2C002001380000AF2C00205D
:103CE00003380000012D002000C800000D2D002029
:103CF00010340000312D002013380000E52A002088
:103D000015380000372B002017380000792B0020D1
:103D100019380000F12B002001700000A9300020AC
:103D200004700000CD3100200CD80000F92F0020D5
:103D300001D800001F300020C03C00200F00000010
:103D4000D03D00200080002080000000683A002064
:103D5000D03D00202090002000010000683A0020A3
:103D600068070800202A0800E0050000683A0020E3
:103D7000060000679A0C200008969EE21146A1708A
:103D8000E65564060000689A0C200008969EE21131
:103D900046A170E65564120000699A0C200008964E
:103DA0009EE21146A170E655640200006A9A0C205A
:103DB0000008969EE21146A170E655640200006B71
:103DC0009A0C200008969EE21146A170E655640008
:040000052000044192
:00000001FF
