:020000042000DA
:1000000000980020A9040020B1040020C9040020A9
:1000100000000000000000000000000000000000E0
:10002000000000000000000000000000E1040020CB
:100030000000000000000000F9040020FB04002084
:10004000EB1E0020053103000D310300711F00205D
:100050007D1F00208D310300D31F0020DB1F0020F7
:10006000FD040020FD040020F31F0020AD3103003B
:1000700057810200951300204B1B02004B1B02000E
:100080004B1B0200FD0400204B1B0200E911002065
:10009000ED110020F1110020F5110020F9110020D0
:020000042000DA
:10016000320000001906002007100020712800202E
:10017000000000000000000063800200BD8002005B
:10018000510E0020FB80020019810200358102001F
:100190005D810200BD1E0020FF050020210E002011
:1001A000390E002000000000000000003F000000A9
:1001B000F48B002000040000740B080048010000CC
:1001C0006807080000040000C80C080020050000B3
:1001D000000000002000000048000000580000005F
:1001E0006800000004010000160100002801000062
:1001F0002E010000202A00008E2E000001000000C9
:100200008813000091100020E9600200FD930200B5
:100210007714002019280300A5740200C51A0020D5
:1002200003000000D52002007D280020040000000B
:10023000D74902000F490200831D020063910200AA
:10024000B7910200BF910200078202007182020092
:1002500090530020AD830200938402004185020088
:1002600015860200378602005F860200758602004E
:10027000F9870200258902005D8A0200D38C020002
:10028000098D02000F900200438D0200278E0200AC
:10029000F98E0200478F0200930D0020D58F0200D7
:1002A00049510200775102002F5202001000000055
:1002B00020030000803E000000000000000000005D
:020000042000DA
:1002C000504600030003983A6400F401B80B000C98
:1002D000B80B120030003000CD009A01120024004B
:1002E00030006400B0001800280012001200D0078F
:1002F0000000FFFF00000000000000000000000000
:100300001F000002444131343538302D30310000B7
:1003100000000000000000000000000000000000DD
:0403200000000000D9
:020000042000DA
:10034000FFFF010000C201000000000000000000EB
:100350000000F4010100011B0A071AFFD200021578
:10036000585CDE931B0142CC9A1325009BEDC65EC0
:1003700000000000C5000000000009FF00605257A7
:100380002D424C450000000000000000000000006D
:10039000000000000000000000004C505800000069
:1003A000000000000000000000000000000000004D
:1003B000000000000000000000000000000000003D
:1003C000000000000000000000000000000000002D
:1003D0000000000000000000020000CAEA80D00710
:0403E000064064323D
:020000042000DA
:100440000348854604F088FA00480047C7200200A8
:100450000098002010B5114906200880FF2010499F
:10046000013008600F4988683E2290432E30886032
:100470000021052000070180028A0F231B021A4376
:1004800002820122D204032308461B038418216040
:10049000001D9842FADB62B610BD00000034005027
:1004A00080E100E0003300501548804715480047C0
:1004B00004207146084203D0EFF30980124908472F
:1004C000EFF308801049084704207146084203D022
:1004D000EFF309800D490847EFF308800B490847FF
:1004E00004207146084203D0EFF309800849084709
:1004F000EFF3088006490847FEE7FEE7FEE7000045
:100500005504002041040020E509002015050020C5
:100510008705002005221207518A80231943518242
:10052000114903680B6043684B6083688B60C36844
:10053000CB6003690B6143694B6183698B61C0695F
:10054000C8610A48836A0B62C36A4B62036B8B62A1
:10055000C36BCB62436B0B63806B4863908A8006EE
:1005600001D500BE7047FEE70018080000ED00E06E
:1005700002890889B549101A80B2884201D9012040
:1005800070470020704781692039897F082904D28B
:10059000AF4A8900515881617047FEE7AE48AD49C6
:1005A0000161AE494161AE498161AE49C161AE4967
:1005B0000162AE494162AE498162AE49C162AE4953
:1005C0000163AE494163AE498163AE49C163AC4941
:1005D000A1485C3140300160AB494160AB4981606A
:1005E000AB49C1600120AB49C0060860AA49CA698D
:1005F0001202120ACA61A74980390860704710B513
:10060000A6490020086000F0AFFB01208007016BC5
:1006100049004908016310BD1CB5A1490120A14E44
:1006200008700825358004F0A9F904F047FE00F0B1
:10063000B6FA9D48017801709C480178017001204C
:1006400004F0A2F96F010D203946800104F0A2F9EF
:1006500001F04AFB00F040FC00F0D6FA042000F064
:10066000EEF8072000F0EBF80A2000F0E8F806208A
:1006700000F0E5F80B2000F0E2F8012000F0DFF8D0
:10068000022000F0DCF8002000F0D9F8884800686B
:1006900004F086F9E80601683943016000F01AF9B0
:1006A00084480068AA2805D1142000F01BFB142000
:1006B00000F026FB03F002F902F0B2FE03F0F8FCB2
:1006C00003F0E9F8FFF79BFFA22005242407E0824E
:1006D00079484188E0229143A0314180012004F013
:1006E00065F904F069F9022803D004F065F90128DE
:1006F00007D13580A08A8006FCD4618A802081439E
:100700006182022604252089000622D50120800767
:10071000006B00041DD404F055F9C00719D1042062
:1007200004F056F9019004F059F90198002810D00E
:10073000002001905F480068AA2802D1142000F030
:10074000DFFA042101A804F04FF9002801D000F0DD
:100750002EFB72B601F0F0FA69460870042806D044
:1007600002280CD003280AD0012865D065E0534840
:100770000078012802D00320087000E00E70208A63
:10078000284320824E48C0690128087811D90328DF
:1007900049D104F02FF9002845D004F031F90028A0
:1007A00041D0032004F032F900283CD045480670BF
:1007B00008E0032837D104F029F9002833D0414953
:1007C000012008703448016929430161618A2022AF
:1007D00091436182218A3143218269460978022945
:1007E000618A22D0294361827F2122888901802366
:1007F0001A4322800022521CD2B20A2AFBD3628AF8
:1008000010231A436282304A491E51612188802296
:100810009143218028494A88BA434A8030BF016900
:10082000A943016109E06846C1E729436182618A01
:10083000102291436182EDE730BF62B663E7C106E3
:10084000C90E0120884021490860704730750000BA
:1008500070530020942703000084004062B600DF3C
:1008600028A30200704701DF1CCA0200F8BD02DFA6
:1008700040CB0200F5E703DF84D4020004DF89B037
:10088000BC330200F8BD05DFF8BD06DFEC0C030049
:1008900070BD07DF80E100E000ED00E08C030800A0
:1008A000208000200033005000000800202A0800AB
:1008B000049000202C8000202000005054020800EA
:1008C000E0010020C40608000080004080E200E053
:1008D000704700003E480178002902D08021417015
:1008E00070473C49002008703B49C8707047384841
:1008F0000178002902D081214170704735490120DB
:1009000008703549C870704731480178002902D015
:100910008221417070472F49022008702E49012022
:10092000C87070472A488178002904D0491E0906FA
:10093000090E817017D142780021002A04D0920755
:10094000920F0270417004E00278002A01D0521E1A
:1009500002701206120E017005D0012A02D0022A7E
:1009600001D1D1E7C3E7704710B5194CA078401CFE
:10097000A0702078002805D104F01EF8421CFFF773
:10098000A9FF227010BD12490120C870704710499C
:100990000020C87070470E48C07870470020EFF301
:1009A0001081012282F31088052212071289120693
:1009B00005D40A48028901231A43028118460029F6
:1009C00000D0012181F310887047054800787047F6
:1009D0002180002054020800C606080000330050A1
:1009E0005E80002005221207118A04231943118218
:1009F000118A02231943118211894023194311815D
:100A0000174B01211960174B08211980518A802347
:100A100019435182144903680B6143684B61836831
:100A20008B61C368CB6103690B6243694B62836965
:100A30008B62C069C8620D48836A0B63C36A4B63EB
:100A4000036B8B63C36BCB63436B074940310B6014
:100A5000806B4860908A800601D500BE7047FEE733
:100A600080E200E0003300504018080000ED00E094
:100A700070B55F480022016FD243002901D01146B2
:100A800000E001210B0201675A490C684D680C60B7
:100A90002B434B60436F002B01D0134600E0012332
:100AA00043670C685B024D680C602B434B60C36965
:100AB000002B01D0144600E00124E317650EDB0192
:100AC0002B43C4610D68E4014E682C4333430C6032
:100AD0004B60836A002B01D0144600E00124E31729
:100AE000250C1B042B4384620D6824044E682C43A0
:100AF00033430C604B60C36D002B01D0134600E004
:100B00000123C3650C68DB004D680C602B434B6010
:100B10000369002B00D101220261D017130F0001DD
:100B200018430C6812014B68224318430A6048605E
:100B300070BD38B5032500242D0204232A46082160
:100B40000220009404F0A2F90323002209210220CC
:100B5000009404F09BF900232A46072118460094CC
:100B600004F094F900232A4619460120009404F069
:100B70008DF900231A4603210220009404F086F91F
:100B800000232A4604211846009404F07FF938BD5A
:100B900010B538221146184803F03EFF10BD1CB5B1
:100BA00005242407208A022188432082A08A000786
:100BB000FCD5FFF7F3FCFFF7BCFFA08840210843FA
:100BC000A0800321092000F06AFB608A20210843ED
:100BD00060820A2101200191009000231322032149
:100BE000022004F07DF90549132004F0ABFA1CBD86
:100BF000289000202090002001E00000910B0020B0
:100C0000A54900204860704770B50521090708898B
:100C10003022904308810889802210430881088986
:100C200080088000401C0881088908231843088137
:100C30009A480488144304804C8A9C434C820D8952
:100C4000402425430D810D8A0426B5430D828D8AEB
:100C5000AD07FCD5904E002575600588012635430B
:100C600005804589AE058E4D068801D52E4300E0EE
:100C7000AE43068005887826B5432835058005886B
:100C80000626354305804D8A1D434D8203889343D4
:100C900003800A89A2430A814089800503D57F49E0
:100CA000052060318880012080070168821591430A
:100CB00001607C4801683F22520291434214891826
:100CC0000160016802031143016070BD0321764891
:100CD00009028181082242800021491C9629FCD307
:100CE0008280704771494880088803221043088039
:100CF0000888042210430880674901200870704763
:100D00007CB5654C217800292DD068490A885207A6
:100D1000FCD4CA880092898801911104019A89182B
:100D2000009163494843009903F07CFE0090002045
:100D300020700098A060009803F081FD05462946C8
:100D40005C4803F032FD0A2103F06DFD03F07EFDE7
:100D5000E060284603F08EFD574A584B03F068FECA
:100D600003F09CFD20617CBD10B54B484168AA2969
:100D700006D07C205249081880B203F05FFE10BDF7
:100D8000C06819210903884200D900BEFF20EB305A
:100D9000F0E770B5414C6088C006050F03F054FEC3
:100DA00061881E2291436A001143618070BD10B5B5
:100DB00044490120C863C86B0028FCD1012080078A
:100DC000C16941480268914201D2002202601923A0
:100DD0008A1ADB019A4212D3016003F03BFE3B4AC0
:100DE0001188884201D9411A00E0091A89B21829EC
:100DF00005D31080012003F033FE03F037FE10BD51
:100E000008B5254989684843314903F00BFE009035
:100E100008BD08B52049C9684843800A009008BD4C
:100E200008B51D494968002903D0FFF7E9FF009084
:100E300008BD03F021FEFAE708B517494968002903
:100E400003D0FFF7E6FF009008BD03F01BFEFAE7B2
:100E500008B5204901204A695206D20F13D04A69C9
:100E60009206D20F0FD000220A610092FF225F3259
:100E7000009B5B1C00939342FAD34969C907C90FD1
:100E800002D003F005FE002008BD40183721C00045
:100E90000901401870470000288000202000005001
:100EA00000100000000200402030005000160050EA
:100EB0000024F400002474497B14AE47E17A443FD7
:100EC00001120000C00000407C0408007804080003
:100ED00040420F000010005030B58D4A8D49D005BA
:100EE000048880231C4304808B4C65892D0701D422
:100EF000521EFAD2894C01222260894C0A88228033
:100F0000884A4988118001889943018030BD0020BA
:100F1000704770477047704700207047012189076C
:100F2000086B0722104308637047704710B57F496C
:100F30007D4808607E494C2008807D4B7D4A203BDF
:100F40001A827E497C4848807E487D4901807C49E0
:100F500019314180222141818121890001827A4910
:100F600041827A4901837849113141837549784832
:100F70002031888041217748090181807649C180EC
:100F8000754C1034C48101824182891C8182611FA9
:100F9000C182FF2146310183704941837049592044
:100FA00008806F486F4C20300480432444806E4C8E
:100FB0004C82D5218180FF21D33101816B49418150
:100FC0006B4981816C496B48088059486B4960388E
:100FD0004180C18810242143C18062490A390181BE
:100FE000534C6749403C61805A82082141814D48F9
:100FF0005B49008840390882494862490088088076
:1010000010BD4008704700B58BB05F4A42625F4A2E
:1010100082625F4A42615F4AC2625F4A02605F4A1F
:1010200002625F4A42605F4AC261404A3E48002114
:1010300010603E484038026B03129A430263426BD1
:101040001F231B049A4303231B04D21842635648F0
:101050000268C3129A430260026803139A43026053
:1010600068464154491CC9B22829FAD301462822AE
:101070004E4803F013FDFFF759FF03F0EBFC4C491A
:101080000880002003F0ECFC03F0F0FC0BB000BD86
:1010900010B5264A0F212448090210602348403821
:1010A000426B1F231B049A4303231B04D218426381
:1010B00000060268D208D2000260052000070289FB
:1010C00092089200521C0281028908231A4302816D
:1010D000028A0A43028237480068002808D10E4875
:1010E0004189890504D5018878229143083101801E
:1010F000FFF71CFF3048006B0078002804D02F4811
:1011000000880B496039C880012003F04FFC10BDF6
:10111000A0860100087F04002000005000800040ED
:10112000560208004A0308004C055407800000409E
:10113000602C00507F7F0000AC290000002200508E
:1011400009090000002400502204000030D00000F3
:10115000EE110000002500502E0200004420000087
:10116000402800500D95000002420000E4DC000021
:101170001092000053780000002A00508B100000ED
:101180009DD50000002600500F0F0020130F0020F7
:10119000190F00201D0F0020150F00202B0F00201D
:1011A000170F00200310002000020040200008005C
:1011B000780408002C80002020020020520408003F
:1011C00010B5044603F0C6FF0C49A0004018803853
:1011D000406B002801D0804710BDE106C90E0120F8
:1011E00088400749086010BD1320E9E71420E7E7AD
:1011F0001520E5E71620E3E71720E1E7C890002077
:1012000080E200E030B4724C71497248603408E00A
:1012100043681A785B1C0A6002684360521E0260D1
:1012200005D0A28B9207D20FF2D130BC70470022BA
:1012300042604B680224A3434B6081680029F4D0CC
:10124000826030BC0020084730B5614A9389802411
:10125000A34393810723138100239380958925431A
:10126000958193809380108091819089A043908193
:101270005948A101016059480268FF242402A24391
:101280004C00224302605448803801605448016099
:10129000504803760361C3604360036030BDD3E709
:1012A0004B49222008617047494922200861704754
:1012B00008B5474901204A695206D20F13D04A693E
:1012C0009206D20F0FD000220A610092FF225F32F5
:1012D000009B5B1C00939342FAD34A69D207D20F5A
:1012E00002D022200861002008BDE1E73848A02193
:1012F000016141698906C90FFBD041694906C90FDF
:10130000F7D07047F2E7334B5A61D9601861304823
:10131000012142688A430A4342607047F3E710B5EF
:101320002C4CA26021606060FFF76CFF60680028B1
:1013300005D027494868022290431043486010BDF9
:10134000EDE710B5224881680907090F01291AD075
:1013500002291CD0042917D00C2914D11D4A117E52
:10136000012910D141690906C90F0CD00021D160B3
:10137000116183885B085B0083805369002B02D076
:1013800001205161984710BD00F005F810BDFFF72E
:1013900039FF10BDD5E70F490D4808E002680B6919
:1013A0001A705B1CCA680B61521ECA6004D0426985
:1013B000D207D20FF2D1704700220A6143685B085E
:1013C0005B0043604B69002BF5D000204A61184751
:1013D000001100503C80002080E100E00CE400E0BF
:1013E00080E200E070B5EFF31085012080F31088F3
:1013F000264803F059FB0446002D1DD0012080F340
:101400001088002C23D020462038C08B20498842E9
:101410001DD16189208903F04DFB05000ED02146C6
:101420001031A38962892089A847002806D00128A5
:101430000DD002280BD105E00020E0E7204603F0A4
:101440003FFB04E0114821460C3003F03FFBEFF373
:101450001084012080F310880C480068002802D115
:10146000012003F039FB002C03D0012080F3108809
:1014700070BD0020FAE710B5BC21064803F032FB2E
:101480000549012003F034FB10BD0000A805080049
:101490003883000004060800E5130020F8B50D4667
:1014A000064681002B48EA884458521C20686B8904
:1014B000018F294F51430091014640314A89C98922
:1014C000511A8AB2991A89B2B94214D29A4212D0E8
:1014D000294603F013FB2D892049009803F0A2FA56
:1014E0002818801C4034E0823002401C80B2042165
:1014F00003F00AFBF8BD2821304603F00BFBF8BDD2
:10150000F8B50546870013480C46C059C9880068DD
:10151000114E024640325389D2899A1A92B28B1ADE
:101520009BB2B34211D20B4E8A420ED003F0F8FAAE
:10153000F05905225F30611C03F0B0FA2802401C0C
:1015400080B2052103F0E0FAF8BD2821284603F017
:10155000E1FAF8BD4C030800FF7F000010270000EF
:1015600070B516460D46104603F0E0FA002869D023
:10157000340A304603F0DAFA012812D0A87A1E287D
:1015800011D029460A310E2845D019DC801E0300EF
:1015900003F0D2FA0B255829582D58315839583DA7
:1015A0005800022070BD3146274803F0CBFA0021D5
:1015B000204603F0CDFA0221304603F0A5FA41E0BF
:1015C00018283CD006DC102819D012282BD0162859
:1015D00038D130E0522822D0D22833D127E020461B
:1015E00003F0BCFA2EE0204603F0BEFA2AE02046C3
:1015F00003F0C0FA26E0204603F0C2FA22E02046BB
:1016000003F0C4FA1EE0204603F0C6FA1AE02046B2
:1016100003F0C8FA16E0204603F0CAFA12E02046AA
:1016200003F0CCFA0EE0204603F0CEFA0AE02046A2
:1016300003F0D0FA06E0204603F0D2FA02E020469A
:1016400003F0D4FA002070BD01280000F3B581B08A
:1016500001980C460102CA1D0E310223344803F0E2
:10166000CBFA047001990546022732488E00002CFF
:1016700006D0042C16D0062C10D0072C3FD108E041
:10168000815905224968897C114069708059C77366
:1016900035E0084603F0B6FA687030E080590F2153
:1016A000C1732CE0044680594068417C012902D175
:1016B000007E01280FD0019803F0AAFA012100282A
:1016C000A0590BD04268D07D00281CD001281AD028
:1016D00004280DD00FE0002068700DE04068C27D46
:1016E000022A01D0042A06D1007C02280BD102E094
:1016F000107C022807D06F70A1590320C8732846B8
:1017000003F08CFAFEBD6970F6E701460A78012005
:10171000042A01D9002070474A78002A01D0012A02
:10172000F8D10A79082AF5D849790829F2D87047FA
:10173000021C000028050800FFB589B00D460020F6
:101740006946059008720B98000A009003F060FA51
:1017500007460B9803F0EAF900287DD00B9829780A
:10176000000A8400764E01295ED0042904D006299F
:1017700043D0072963D120E0687800281BD0305976
:1017800010224068A91C03F089F9002F06D03159B6
:10179000C87B032807D0042808D050E03059C07B0C
:1017A000032803D04BE00B20C87348E005210098C4
:1017B00003F03AFA43E00120B6E03059C07B0E282E
:1017C0003DD1009803F01EFA002103E02A18401CC6
:1017D0009170C0B21028F9D3688A694608832946F7
:1017E00006A808221431023003F058F906ABAA1CEF
:1017F0003946009803F01EFA21E03059C07B0F28CB
:101800001DD1AA1C0A21009803F01AFA002F04D057
:101810003946009803F01AFA11E000231A463946B7
:10182000009803F019FA0AE0012F08D10B9803F091
:101830007DF901281CD0002801D0022005906846BF
:10184000007A002811D002AA0521009803F0F8F9C7
:101850006846027A602000E007E0024368460272B0
:1018600001233946009803F0F7F905980DB0F0BD53
:101870003059C07B0228E2D16878002851D002217B
:101880000B9803F041F9305907224068A91C173022
:1018900003F004F9E878002804D130594068407C0E
:1018A00001283AD0009803F0DDF9002837D0297AD2
:1018B000009803F0DDF9002833D0009803F0DEF93A
:1018C0000121009803F0E0F900282CD0305940683D
:1018D000417E00292BD0042929D0C17E027D1140F0
:1018E000C17630594068017F427D114001776846DA
:1018F000007A0028A7D13059022142680098173297
:1019000003F09EF9305941684031897B002913D09A
:1019100004210098FFF79AFE91E7022004E00620D8
:1019200002E0082000E00320694608728BE70021EE
:10193000C17630594068D9E70B21C1737FE70000B9
:101940002805080070B50446007800250D2801D050
:101950000A2200E002225A494B7A002B06D00D28B9
:1019600004D0637C032B01D0432551E0097A8A43DC
:1019700039D10D2809D00E2802D00F2803D134E028
:10198000607C032804D3402542E0607C0328FAD819
:10199000A07C0428F7D20A2908D0607C012822D034
:1019A000022820D06078032809D811E003F072F9EA
:1019B000012806D16078032803D0002801D04925EA
:1019C00026E003F067F9002802D160780228F6D8F3
:1019D0003020035D22462046E17C3132143000F095
:1019E00019F8054614E0422512E003F053F90128E6
:1019F00007D16078052804D1A01D03F051F9002813
:101A0000DDD003F047F9002802D160780228D6D84B
:101A1000284670BDFFB5002086B001216A461170CE
:101A2000044605910021002C06D0089D099A1F2329
:101A30009A4234D9402032E01C23069D079AF7E7EA
:101A40006B185E78330003F077F81D261010101025
:101A50001010101010262626262626262626262694
:101A600026261010101010102600059B03E06F466C
:101A7000FF5CB74204D05B1E5BB2002BF7DA03E0D9
:101A8000002B01DB4A2006E0059B6F46FE54059BB8
:101A90005B1CDBB205936B5C491C5918C9B29142BF
:101AA00001D20028CCD0914202D04A200AB0F0BD29
:101AB000641CE4B2022CF9D20028B3D0F6E700008F
:101AC00098050800F8B50C469449164609680125A2
:101AD000002702228B1C312873D012DC0C2874D012
:101AE00008DC012821D0022840D007284FD00B283D
:101AF00069D156E010287FD0112876D01228F7D16E
:101B00008DE00123412871D008DC32286FD03528C0
:101B10006ED036286DD04028EAD1B1E0422869D095
:101B2000432868D04428E3D1CFE006227C497D4891
:101B300003F0BCF8002808D006227A49304602F0AB
:101B4000ADFF062020700020F8BD744801680878B9
:101B5000C00738D02078062801D22770C2E00622BC
:101B60009831304602F09AFF06200EE00A786B4862
:101B7000920728D522783E2AEFD305464A7E5A316D
:101B8000304602F08BFF2868407E2070A7E008787E
:101B9000400718D520780228DFD3887C3070587C25
:101BA00078E00A785D4812070DD52278202AD4D330
:101BB0000546CA7D1A31304602F070FF2868C07DA4
:101BC000E3E735E001E077E016E00A785348D20613
:101BD00072D52278202AC0D305460A7E9831304635
:101BE00002F05CFF2868007ECFE70EE054E028E0BA
:101BF00034E03BE058E060E00878800670D520785B
:101C00000428AAD30422091D23E00878400667D5DA
:101C10002078002866D0087D08E022705FE0087810
:101C200000065DD5207800285CD0487D3070F4E750
:101C30000888C00554D5207804288ED304220C319E
:101C400007E0088880054BD52078042885D3042236
:101C50000831304602F022FF042096E7088840054C
:101C60003ED5207800283DD0887D36E008880005E4
:101C700036D5207802288FD3087C3070487C09E064
:101C80000888C0042CD52078022885D38231087FAB
:101C90003070487F7070C0E70888800420D52078B5
:101CA00000281FD0A03117E00888400418D52078FC
:101CB000002817D0A1310FE012E0088800040FD5EA
:101CC000207800280ED0A23106E00868C00307D5AE
:101CD0002078002806D0A3310878307023700025C2
:101CE0002846F8BD0425FBE770B50F480F49C40529
:101CF000228880252A4322800D4A53891B0701D45C
:101D0000401EFAD20B4A012010600622054802F05C
:101D1000C5FE2088A843208070BD0000C0060800D2
:101D2000383E030058800020A0860100D47F0400C4
:101D30002000005000800040F0B5554D85B00026D1
:101D4000686937460190FEF726FE0021514C0028B5
:101D500002D12079022800D101914F4802684F48F2
:101D6000002A0FD10278002A0DD04D4B0122DA63F0
:101D7000DA6B002AFCD101229207D2691923DB0118
:101D80009A420ED3017002F097FF00287DD0E078D0
:101D90000126002879D005200007808AC00701D0DD
:101DA000042672E002F00EFE00286ED13D48006865
:101DB0003F2804D12079002801D128690190A17819
:101DC00001A802F07FFF00285FD0A17801A802F0EF
:101DD0000BFE002859D0334800683F2803D102F099
:101DE00077FF002851D02C480068AA281DD09720E2
:101DF00007210125AD07EA6B920A92027F1C3A4344
:101E0000EA63EA6B284B80021A400243EA63E86BFC
:101E1000C002C00A49050843E8631F480426006859
:101E2000002807D0AA280ED01CE02048FEF7F8FFB3
:101E30000321DEE701986421C00202F0F3FD401E99
:101E40000BE001210CE0019802F0F9FC1849096847
:101E500002F06EFC02F0FAFC009021790029F0D12A
:101E600002F03CFF1348C06A8047286B0004C00F93
:101E7000FBD011480168C905FCD502F035FF0520EB
:101E800000070189802291430181304605B0F0BDF1
:101E9000A0020020C60608002C8000202080002020
:101EA000C000004060010020FF03E0FF01120000BD
:101EB000388000201C0708000002004010B50124F3
:101EC000A407A06BFEF7B8FF5F4902F0ABFD272225
:101ED0001201511A00D101215C4A50601160206B3F
:101EE000082188430843206310BD38B500200090C6
:101EF0005749082008800524240721883020014301
:101F00002180218803221143218002E000BF00BF0D
:101F100000BFA18A0906F9D5618989088900618114
:101F20004C494A88520852004A80218881432180C6
:101F30002088800880002080A08A400701D5FEF715
:101F40002EFE2089802108432081208A0421884395
:101F50002082A08A8007FCD53F4841050268D20252
:101F600002D40A69520702D4009A002AF6D038BD7A
:101F700010B502F0BFFE02F0C3FE10BD10B502F0B6
:101F8000C5FE05200007418A8022914341823048E6
:101F90000189490849000181304800683F2801D182
:101FA00002F0BAFE01208007816904221143816199
:101FB00002F0B8FE02F0BCFE02F0C0FE2848006845
:101FC000AA2802D11420FEF78DFE264900200870B1
:101FD00010BD10B502F0B8FE10BD10B5012080078D
:101FE000008A000704D502F0B5FE1E4903200870E0
:101FF00010BD70B51C48008885061748AD0E4468B2
:102000001648C030006B0078002802D1284602F044
:10201000A7FE16480089134EC00507D520060BD52C
:10202000E00709D0284602F0A1FE03E0200603D510
:10203000E00701D002203070200403D5E00501D56F
:102040000120307070BD00007102000040000040AF
:1020500000330050200000500002004060010020CA
:102060002C8000205E80002000200050002C0050BA
:1020700008B5002002460090174B1D21174800F0BC
:1020800045FB08BDF8B516460C4607464A88098840
:102090003E23134802F0B0FD0546207902F06CFEA5
:1020A0002880AE70002E0BD000200090034661887F
:1020B00001220A4800F052FB284602F0AFFDF8BDAD
:1020C00039463A220A31281D02F0E8FC60880221D4
:1020D00002F01AFDF0E70000B053002060800020FD
:1020E000017400007CB51E4615460C46088802F0B7
:1020F00049FE014668460171458006804423224618
:1021000069466E4800F0D6FA02468C2804D0002AB0
:1021100004D06946002013E001207CBD67482946B1
:10212000006800F097FA0646A07800280BD03046E9
:102130003A22211D0A3002F0B1FC002269463046E5
:10214000FFF7A0FF09E05E4C3046214600F003F99E
:10215000F4800121284602F0D7FC00207CBD10B598
:1021600056480C461146006800F074FA21884181F7
:1021700061888181417A491C4172002010BD1CB5E3
:102180004E480C461146006800F064FA02460830DA
:102190000094019090894B4B0E32092100F0C5F953
:1021A00000201CBD70B514460D46104602F0BEFC62
:1021B000064642482146006800F04CFA0446012ECB
:1021C00002D0022E29D033E06A780A2A03D0002AEE
:1021D00001D001460DE0E0883949884215D1608977
:1021E000002804D0607A012807D9842200E08322E5
:1021F00021460846FFF746FF1AE03348E0802146B3
:102200000A31204600F0DBF812E021462D4A0E315B
:10221000092000F04EF90246EAE72878082807D19D
:102220006A78002A04D000232849204600F0ABFA3F
:10223000002070BD70B521480D461146006800F0C1
:1022400009FA0446007902F097FD2A881F49904256
:1022500016D1A87809280CD2062242431219138AF3
:10226000002B06D02072A2896189204600F030F848
:1022700004E000238222204600F085FA002070BD91
:1022800000238122F7E710B50C480C461146006880
:1022900000F0E0F9234600220C4900F074FA002017
:1022A00010BD1CB50888094900230090891E0193C0
:1022B000024800F0D7F900201CBD0000608000201B
:1022C0000A180000C0530020032800000474000016
:1022D00010B5428800791C4601020C310823FE48E3
:1022E00002F08AFC082101700121417000218180E7
:1022F000C180448002F092FC10BD10B50C460988E4
:10230000002910D04288007906230102F2480C31DE
:10231000401D02F071FC102101702188418061880C
:10232000818002F07BFC10BD10B50C4609880029A5
:1023300010D04288007906230102E7480C31401D85
:1023400002F05AFC1121017021884180618881804E
:1023500002F064FC10BD10B5428800790C46010201
:10236000DD480C310823401F02F046FC02460320E2
:10237000107001205080801E908002205070947157
:10238000210AD171104602F049FC10BD10B54288F7
:1023900000790C460102D0480C310823401F02F09E
:1023A0002BFC0421017021884180618881800221F9
:1023B000417000218171C17102F030FC10BD10B577
:1023C000428800790C460102C3480C310823401FA3
:1023D00002F012FC05210170218841806188818012
:1023E0000221417000218171C17102F017FC10BD02
:1023F00070B50D4609886A796B888A180179521E72
:1024000009025B1C00240C3140889A4216DB02460C
:10241000B1480823401F02F0EFFB01460720087077
:102420006A88521C4A8028886A798218521E8A80DB
:10243000022048708C71CC71084607E00A460146BC
:1024400003200223000302F0D7FB447002F0E6FBF6
:1024500070BDFFB50E46194642881D460A31007907
:102460008BB201029C4881B00C31801C0A9F02F0A3
:10247000C3FB002181800181077046800446C5802E
:102480000120607020462A460A30039902F006FBBC
:10249000204602F0C3FB05B0F0BD1CB56B461A71B7
:1024A000120A5A710C220092022301AAFFF7D1FFEF
:1024B0001CBD70B50546002003460EE006245C43B3
:1024C0000E5B002E0ED09E00B6186418F6782479A4
:1024D000A64300D085205B1CDBB2AB4201D20028B2
:1024E000ECD070BD9C00A418A478FF2CF3D18320FD
:1024F000F1E7F0B505460020044611E066008E5B6A
:10250000002E0BD1A600B618B778FF2F06D1F678AB
:1025100006277E439E5B002E00D08320641CE4B21D
:10252000AC4201D20028E9D0F0BDFFB581B015461C
:102530000F4600240A9E26E00498A100425A7179B1
:10254000B01D02F025FC00281BD020460622318851
:1025500050432952728841194A8032790A712B5CA2
:10256000019AD21A521C4A710B990978A14206D0DD
:1025700006225143285C6A5C801A491948710B98FD
:102580000470641CE4B2BC42D6D384E7FFB581B0CA
:102590001D4616460746002416E0A0008119CA7899
:1025A0000A998A420ED1325AA978E81C02F0F0FB4F
:1025B000002807D002996000095A002902D1029927
:1025C0002A880A52641CE4B2BC42E6D363E7F8B539
:1025D00000240546002815D04048C069884211D91A
:1025E000286800280ED08F00C659002E0AD0002A75
:1025F00001D030469047304602F0D0FB29680020D9
:10260000C85100E081242046F8BD70B581240546FC
:1026100000281DD0314EF069884219D92868002859
:1026200016D02846FFF7D3FF040011D10146F26906
:1026300004E08B002868491CC058C9B28A4202D9FC
:102640000028F6D004E0002802D1284600F033F933
:10265000204670BD02460020002A02D0080A8000F1
:1026600010587047FFB581B007461E460D460398C7
:1026700002F05CFAB0421CD038680399FFF7EAFF19
:10268000040016D0628821880423284602F0B4FA98
:1026900005460A98288060880B9A010A3846FFF799
:1026A000B4FFA870284602F0B9FA3146039802F048
:1026B0002BFAF0E6F8B50C7915460E460746FF2CC6
:1026C00021D07088010AA1420ED02102C0B201437C
:1026D0003288284604E0000007300000E0010020B6
:1026E00002F062FB8C250FE01A462146384600F0C6
:1026F000ECF8050008D13868A100405806223146A0
:1027000002F0CCF900E089252846F8BDFFB5074660
:102710000068844D81B00E4600280ED0002406E0EB
:10272000214638460A9AFFF752FF641CE4B2E86972
:10273000A042F5D8384600F0BEF8F0B2049902F095
:1027400039FB002406E020023043039902F0DCF953
:10275000641CE4B2E869A042F5D89CE6FFB581B0FC
:102760001F4615460C4608460A9E02F0DFF9A842AD
:1027700008D13946204602F0C7F9210A32460198AD
:10278000FFF743FF87E6FFB581B0074603980025B2
:102790001E460C46002800D1B5887A8828460830A5
:1027A00083B23988204602F027FA0446387902F0CD
:1027B000E3FA20800398A07100206080A580002E9D
:1027C00006D0308860802A46B11DE01D02F066F90F
:1027D000204602F023FA5EE6F8B514460F461E4680
:1027E0000546428801880623204602F005FA044681
:1027F000287902F0C1FA208027716680204602F015
:102800000DFAF8BD70B51446428800790D460102F4
:102810000C310423444802F0EFF9002D01D01321BC
:1028200000E012210170448002F0F8F970BD0A88BE
:102830000270120A42708A788270CA78C2700A796D
:1028400002714A7942718979817107207047427813
:10285000037812021A430A8082788A70C278CA709A
:1028600002790A7142794A7180798871072070472C
:1028700010B5FFF7FDFB00F059F810BDF8B50402E4
:1028800006461D3417460D46204602F04FF9002833
:1028900005D0EAB223463946304602F091FA362096
:1028A00002F044F9022805D1EAB23623394630460F
:1028B00002F086FAF8BD10B504460068002803D07F
:1028C00002F06CFA0020206010BDF7B505460068E4
:1028D0000024144E0F4600280BD1F069012180001E
:1028E00002F074FA286000280BD0F169890002F028
:1028F000F9F8F069B84212D92868BF00C059002819
:1029000001D089240CE00121029802F05FFA060050
:10291000F7D0029902F060FA2868C65100E08124DD
:102920002046FEBDE00100200D30000010B50A2158
:10293000264802F051FA2649362002F03BFA0021DF
:10294000362002F0E1F810BD70B5204D064629880A
:10295000042336221F4802F04FF90446287902F07A
:102960000BFA2080A670204602F058F970BD7CB5A5
:10297000164C0021E08802F035FA1648218802231F
:102980003622401E02F038F90546E08801AA801C74
:1029900080B2694602F02CFA207902F0EDF9288025
:1029A000284602F03BF90121362002F0ADF87CBD4B
:1029B00010B5044605480123018806483622083030
:1029C00002F01AF9047002F029F910BD6A800020A3
:1029D000DC54002002D80000F8B5FF4C0B4601255E
:1029E000E18807226D02891C865C9F5CBE4235D05F
:1029F00088B2082102F002FAE0880821001D80B2A6
:102A000002F0FCF9E0880821801D80B202F0F6F99E
:102A1000E0882946083080B202F0F0F9E088082109
:102A20000B3080B202F0EAF9E08808210D3080B264
:102A300002F0E4F9E08808210F3080B202F0DEF9FC
:102A4000E0880821113080B202F0D8F9E08808212E
:102A5000133080B202F0D2F90020F8BD521EC3D567
:102A600088B2092102F0CAF9E0880921001D80B26C
:102A700002F0C4F9E0880921801D80B202F0BEF99D
:102A8000E0882946083080B202F0B8F9E0880921D0
:102A90000B3080B202F0B2F9E08809210D3080B22B
:102AA00002F0ACF9E08809210F3080B202F0A6F9FB
:102AB000E0880921113080B202F0A0F9E0880921F4
:102AC000133080B202F09AF90120F8BD10B5C34B63
:102AD0001870184600F087FEBF48C04AC08814210D
:102AE000113080B202F090F910BD10B5132101F041
:102AF00099FF002901D0401CC0B210BDFFB589B0BC
:102B00000521C90268468182C91C0182B44901833A
:102B1000B14C362161800921EA2500910B22002366
:102B200001953621A01D02F075F905007ED1A01D8A
:102B3000012500950190E08805AB0222102102F0EA
:102B40006FF9E088A74A102102F05EF903AF019700
:102B50000095E08804AB0222132102F061F902AE75
:102B6000082001960090E0889F4B1022012102F07E
:102B700057F99E496846007A48700A46684613210C
:102B8000808902F041F901970095E08804AB0222A8
:102B9000132102F045F9082001960090E088944B3B
:102BA0001022022102F03CF992496846007A4870EE
:102BB0000A4668461321808902F026F9019700959C
:102BC000E08804AB0222132102F02AF908200196C2
:102BD0000090E088884B1022022102F021F98749F9
:102BE0006846007A48700A4668461321808902F0D8
:102BF0000BF901970095E08804AB0222132102F043
:102C00000FF9680201960090E0887D4B10220221A6
:102C100002F006F97B496846007A48706846407AB7
:102C200088700A4668461321808900E09AE002F025
:102C3000EBF80920019600900222E08806AB1146CD
:102C400002F0EEF801970095E08804AB0222132110
:102C500002F0E6F8082001960090E0886A4B102206
:102C6000012102F0DDF869496846007A48700A4699
:102C700068461321808902F0C7F801970095E08823
:102C800004AB0222132102F0CBF808200196009039
:102C9000E0885F4B1022082102F0C2F85D496846C7
:102CA000007A48700A4668461321808902F0ACF821
:102CB00001970095E08804AB0222132102F0B0F8DE
:102CC000082001960090E088534B1022082102F062
:102CD000A7F852496846007A48700A4668461321A8
:102CE000808902F091F801970095E08804AB0222F8
:102CF000132102F095F8082001960090E088484BD7
:102D00001022142102F08CF846496846007A487077
:102D10000A4668461321808902F076F801970095EB
:102D2000E08804AB0222132102F07AF80820019611
:102D30000090E0883C4B1022012102F071F83B49E1
:102D40006846007A48700A4668461321808902F076
:102D50005BF80546E088002102F044F801213620A6
:102D600001F0D2FE0123362231480C9901F044FFD4
:102D7000057001F053FF00200DB0F0BD38B50D46D1
:102D800001206946144C08802380288801F0FAFF4E
:102D90002071FF287ED0A978E08802F023F8E0882F
:102DA000EA1C801C80B2012102F02EF8E0882A1D66
:102DB000001D80B2022102F027F8E088EA1D801D84
:102DC00080B2022102F020F8E0882A460830093259
:102DD00080B202212EE000006A80002008800020DE
:102DE000022900003C5400204C540020AC57002025
:102DF0005C540020BF5700206C540020D2570020A4
:102E00007C540020E55700208C540020F857002007
:102E10009C5400200B580020AC5400201E58002069
:102E2000BC54002031580020CC54002044580020CD
:102E300004D8000001F0E8FFE0882A460B3080B299
:102E40000B32012101F0E0FFE0882A460D3080B20C
:102E50000C32082101F0D8FFE0882A460F3080B2FA
:102E60001432082101F0D0FFE0882A46113080B2E8
:102E70001C32142101F0C8FFE0882A46133080B2CA
:102E80003032012101F0C0FFA8792072002809D05A
:102E90000BE0FFE71B23DB02FB4A8921FB48FFF71E
:102EA0009BFC0DE0002069460880E0886A460930F6
:102EB00080B2022101F0A8FF0221362001F024FE99
:102EC000002038BD70B5F14D0C46287901F054FF53
:102ED0002188884211D1E888A21C083080B20221E2
:102EE00001F092FF287AC0070AD0E8880021083054
:102EF00082B22846FFF786FC02E08120FFF758FDEA
:102F0000002070BDF0B5B7B00C4608206946888136
:102F10000025DE480095019500798026190A814236
:102F200033D1DA4A2088D1888B1C984200D1012500
:102F30000B1D984200D102258B1D984200D103251C
:102F40000B460933984200D104250B460B339842B7
:102F500000D105250F460D37B84200D106250F4692
:102F60000F37B84200D107250F461137B84200D1BC
:102F700008251331884200D10925C54927464968EB
:102F80000837012902D000297ED0B8E1012D10D0E8
:102F9000052D7AD0092D79D0022D78D0032D77D048
:102FA000062D76D0072D75D0082D74D0042D73D042
:102FB000A5E13A46012101F027FFE079002802D07F
:102FC000207AFFF7C1FC207A0026012802D00228CF
:102FD00019D094E1AE480125AC4F0570F888AC4A91
:102FE0000B3080B2294601F00FFFF888A84A133051
:102FF00080B2521C012101F007FF00F04AFBA548F6
:10300000057045704DE00021A14D0120A970687048
:103010000A46FFF75BFD9D4F6A1CF88801210B30C3
:1030200080B201F0F1FEA878AA1C401CA870F888B4
:103030000121133080B201F0E7FE00F019FC96493F
:103040004870F8884A1C0B3080B2012101F0DCFE88
:10305000A8780021401EC0B200F0EAFB1230C0B2D6
:10306000FFF743FD8C490870F8880A46133080B298
:10307000012101F0C9FE88480221407800280CD0C7
:103080008448017001210BE043E110E012E021E0EF
:1030900025E096E0A5E0CDE01EE17E48017000212C
:1030A0004170002232217D4801F0C0FE27E13A46FE
:1030B000012111E03A46012101F0A6FE0546E07922
:1030C000002802D0207AFFF73FFC00260321002DC4
:1030D000E3D1D5E73A46022101F096FE7AE03A467E
:1030E000022101F091FEE079002802D0207AFFF75A
:1030F0002BFC207A00260228D8D1607A0128D5D16D
:10310000634D65486978027891424BD1A97840783F
:10311000814222D100205D4F6870F8886A1C0B3014
:1031200080B2012101F070FE0020A870F888AA1C6E
:10313000133080B2012101F067FE142104A801F0D0
:10314000D1FCF88804AA113080B2142101F05CFE91
:1031500000F0B8FA00F07DFBD1E08142A6D2002059
:103160004A4F6870F8884A4A0B3080B2521C0121DD
:1031700001F04AFEA878464A401CA870F888921CC4
:10318000133080B2012101F03FFE142244A104A8B3
:1031900001F052FEF88804AA113080B2142101F027
:1031A00033FEACE091420BD2491CC8B26870A978DA
:1031B0001323491ECAB2411E5943C9B2FFF786FC08
:1031C0009DE03A46082101F01FFE00F00BFA384658
:1031D00000F0F1F9E079002802D0207AFFF7B4FB83
:1031E0008CE03A46082101F00FFEE079002802D079
:1031F000207AFFF7A9FB0026684600F0E8F923488B
:1032000002AAC08803A90F3080B201F0F1FD684620
:103210000299FFF7E1FB1E490028486002D001280F
:1032200076D06CE018480423322236210C3801F0A5
:10323000E3FCDAE03A46142101F0E6FDE0790028EB
:1032400002D0207AFFF780FB227A0026002A31D0B4
:103250000F49087882423DD1401C08700B480A464D
:10326000C08802210B3080B201F0CEFD0948012157
:103270000170417000223221084801F0D7FD384624
:10328000132100F0D9F93AE015D800006A80002037
:1032900000800020DD9000205758002001C8000069
:1032A000FF0000000000000000000000000000001F
:1032B000000000005648002101705648544AC0885A
:1032C00001210B3080B201F09FFD012052490870AE
:1032D0004870E6E60121E0E6617A227A0D021543A4
:1032E00001D0012D0BD13A46022101F08DFD494854
:1032F000012D017A7ED04908490001720026454817
:1033000021880079324601F09DFD002037B0F0BDE4
:103310006EE03F480021017098B23D4A012101F062
:1033200073FD3B49002048703A484A1CC08801217F
:103330000B3080B201F068FD3549002088703548B7
:103340008A1CC0880121133080B201F05DFD012D7F
:103350000CD0072D28D0042DD1D1607A217A050216
:103360000D4301D0012DCAD12088BCE720883A4600
:10337000012101F049FDE079002802D0207AFFF711
:10338000E3FA207A00260028B9D16422234904A850
:1033900001F052FD2149642264311DA801F04CFD69
:1033A00004A800F0B6F920E020883A46082101F090
:1033B0002BFDE079002802D0207AFFF7C5FA00261D
:1033C000684600F004F9134802AAC08803A90F3028
:1033D00080B201F00DFD68460299FFF7FDFA0C4935
:1033E0000028486004D0012889D1002148E601E086
:1033F00000206BE7012211437FE710B50549180A49
:103400000979884201D1FFF7B2FA002010BD00000F
:10341000008000206A800020DD90002034550020CC
:1034200010B50849084801F0D7FC0849372001F0D9
:10343000C1FC0021372001F067FB03490020087020
:1034400010BD00006A02000075800020FC550020BD
:10345000F8B58878374E0025374C0F46012808D03C
:10346000207800280DD00721002001F0BFFE257034
:103470000DE03878A0707878E070257065700120D4
:1034800030700721002001F0D3FE01202070607809
:10349000401C6070B878294F022809D06078A17864
:1034A000884212D2E2783721384601F0BFFC13E09F
:1034B00065702570A570E5700721002001F0B8FE49
:1034C0003721384601F03EFB05E065702570072185
:1034D000002001F0ADFE35700020F8BD10B5372199
:1034E00003233222880201F087FB00210170417022
:1034F000817001F093FB002010BD10B50421002065
:1035000001F096FE0D4C3721A41C204601F01AFB59
:103510000421002001F06AFE2B223721204601F011
:1035200085FC002010BD10B50421002001F080FEB4
:10353000002010BD758000201C80002001DC0000F0
:10354000DD480021417081700B21C170002070475F
:10355000D9494A7802708A784270C978817000200F
:103560007047D5480021017141718171C1710846D0
:10357000704710B5D04A0021435C5418491CC9B2A9
:1035800023710429F8D3002010BDCB4A0021531821
:103590001B794354491CC9B20429F8D30020704751
:1035A0000020C54902460B18401CC0B21A720828F8
:1035B000F9D30020704710B5BF4A0021435C54186E
:1035C000491CC9B223720829F8D3002010BDBA4A99
:1035D000002153181B7A4354491CC9B20829F8D357
:1035E000002070470020B44902460B18401CC0B2AE
:1035F0001A720828F9D3002070470020AE4902460D
:103600000B18401CC0B21A746428F9D3002070470C
:10361000A94A002153181B7C4354491CC9B2642990
:10362000F8D300207047A449603108750020704726
:10363000A1486030007D704770B50346FFF7F8FF82
:1036400000229D4D08E08418642C07D29E1864194E
:103650007678521C2674D2B28A42F4D34018C0B293
:10366000642800D96420944960310875002070BD39
:10367000642803D290490818007C7047FF207047E7
:10368000642804D28C4A1018017400207047FF206F
:103690007047894800216030017508467047002056
:1036A000704705280CD2642358430021824B0A46F8
:1036B000C01843186033491CC9B29A756429F8D3FD
:1036C0000020704710B500242046FFF7EAFF641C75
:1036D000E4B2052CF8D3002010BD64235943764B87
:1036E00010B50022C9188B18845C6033521CD2B20A
:1036F0009C75642AF7D3002010BD6F486030417D6F
:10370000491CC9B24175052901D90521417500201F
:103710007047FFB504460020674B0090019002906F
:1037200002AD01220390642600214643F618771863
:103730006037BF7D002F00D02A54491CC9B20A2926
:10374000F5D3401CC0B20528EDD300206B465A4E7D
:10375000642500214543AD196E186036B67D675C5F
:10376000BE4200D01A54491CC9B20A29F4D3401CE5
:10377000C0B20528EBD3197858789A780918D87808
:103780001018091818790818C5B2052D19D1187B19
:10379000002800D10425D87A002800D10325987A82
:1037A000002800D10225587A002800D10125187A76
:1037B000002800D1002529462046FFF78EFFFFF79D
:1037C0009CFF284604B0F0BD642359433A4B0022C5
:1037D000C9188B1860339B7D8354521CD2B20A2ABD
:1037E000F7D30020704770B586B00E4605461446E4
:1037F0001421684601F076F9642044432E480023E2
:1038000021186846F218642A07D28A186032927D1D
:10381000C2545B1CDBB2132BF4D30021425C6B1847
:10382000491CC9B25A701329F8D3002006B070BDE4
:1038300064225043204A801840186030807D7047D1
:10384000642358431C4BC018401860308275002018
:103850007047194800216030417508467047164886
:103860006030417D002901D0491E4175C8B27047C2
:1038700011486030407D704770B504460020034613
:1038800006E0E55CCE5CB54200D101205B1CDBB2FA
:103890009342F6D370BD00B5FFF752FEFFF761FE0D
:1038A000FFF77EFEFFF7A9FEFFF7F3FEFFF7D1FF5C
:1038B000FFF708FF002000BD7580002038B5012407
:1038C000684604700C21494801F086FA474D694664
:1038D000EC702A1D352001F0BBFA002800D02C71B5
:1038E00000F053FA4249322001F064FA00213220FC
:1038F00001F00AF900F0B2F838BD10B500F0DBFABB
:1039000010BD10B5394802238078322201020E31F1
:10391000384801F071F9012101701321417001F063
:103920007DF910BD10B5044630482C238078322232
:10393000010230480E31801E01F05EF90146203050
:10394000047200224272084601F068F910BD10B5F9
:10395000502332220D21284801F04EF9044600F090
:1039600034FA204601F05AF90221322001F0CCF855
:1039700010BD214810B5012332220D210B3801F072
:103980003BF90221017001F049F910BD10B500F0BA
:10399000A7FA10BD194B10B59A4201D91A4602E098
:1039A000002A00D1012201F041FA10BDF8B5064607
:1039B000114815460F46252332220D21C01C01F067
:1039C0001BF90446012020772046062239461D3087
:1039D00001F064F82320065565822582204600F018
:1039E000A9FA204601F01AF9F8BD0000E082002093
:1039F0003C560020043800000E34000030750000F2
:103A000010B501F02BFA254901F02EFA24480818C8
:103A100010BDF8B5234D0646A876002401F01EFA25
:103A20002919641CE4B20874082CF7D30024102769
:103A3000381BB04201DD002007E001F00FFAC1178A
:103A4000090E0918090A0902401A2855641CE4B233
:103A5000102CEDD301F002FA2883F8BD10B5242113
:103A6000104801F0B9F900F091F910BD10B50E48F9
:103A700002238078322201020E310C4801F0BCF89A
:103A80000D210170074920318978417001F0C6F895
:103A90000321322001F038F810BD0000A0BB0D005A
:103AA000A0860100EC820020E08200201A3800008D
:103AB00010B5084609781C460B0001F03DF80805D2
:103AC00020202008181B1E2000F037FA17E041784C
:103AD000012904D0002902D0022903D00FE000F010
:103AE00046FA0CE01146204600F08DFA07E000F09F
:103AF0005DFA04E000F05BFA01E000F059FA002002
:103B000010BD10B50878304C801E030001F014F889
:103B1000020214188878A070C0070AD02B492A4ADC
:103B20004879203AD07628480622891D001F00F0E7
:103B3000B5FF00F063FA03E0FFF7E3FE0020A0709A
:103B4000002010BDF8B518460D4601461223204846
:103B500001F052F80446284600F051FA00270028E8
:103B600021D0194EB078C0071DD030460822A91CBC
:103B7000103801F09BF8002815D130462038018B11
:103B80002A8891420FD101212170807E60743146D4
:103B900010222039601C00F081FFB078FFF7C2FED0
:103BA00000F030FA00E02770204601F037F8207866
:103BB000002801D1FFF7A5FE0020F8BD10B500F0E8
:103BC00020FA002010BD00000C830020E0820020BD
:103BD0001838000010B5104600F0A8FF002809D1E1
:103BE000012332220D21484801F006F8012101701D
:103BF00001F014F8002010BD70B5087815460F28A4
:103C00002DD008DC01280DD002282CD003281CD090
:103C10000E2830D11FE0102825D0112823D01228DB
:103C200029D123E04878002825D1374822233222A1
:103C30000D21801C00F0E0FF04460146284600F0FC
:103C400050F9204600F0EAFF15E04878002812D12C
:103C500000F05BF90FE0487800F065F90BE0487878
:103C600000F062F907E000F064F904E048784428C5
:103C700001D100F061F9002070BD70B51C461046FE
:103C80000D4600F053FF022805D12049200A887014
:103C9000284600F07CF8002070BD70B50878154605
:103CA0000C460A2810D1104600F040FF04280BD122
:103CB0006078002802D000F034F905E0052128469C
:103CC00000F022FF00F02EF9002070BD10B5104664
:103CD00000F0E5F8002010BD10B510460C4600F0CD
:103CE00025FF012808D12078002805D1FFF705FE1F
:103CF000002801D000F019F9002010BD10B50846C9
:103D000000F019F9002010BD02340000E08200200C
:103D100010B5012332223621D34800F06DFF00F0A8
:103D20007DFF10BD70B5322336211A46880200F09F
:103D300063FF0446CD480025008820800120A07044
:103D4000CB48E5700178217142786271E17122728D
:103D50006172A272811C2046E57208220C3000F0CC
:103D60009DFE20460822C349143000F097FEC14949
:103D70002046142208311C3000F090FE30200555FA
:103D8000A571204600F04AFF70BD7047704770B5BE
:103D9000B64D0446A878FF2814D0FFF7C3FF0521CD
:103DA000322000F0B1FE21882980617A69712146B4
:103DB00006220A31A81D00F071FEAF488078FFF797
:103DC000B1FD70BDFFF7C3FD70BDF0B5044693B003
:103DD0000E20207000256570A848A081E081072092
:103DE0002074012060741C20E074274622461F20A6
:103DF0002037143238741646511E0B2001F028F873
:103E0000002805D02A46E5749DA1304600F046FE04
:103E100022463132511E0C20119201F019F800286F
:103E200005D03D742A4698A1119800F037FEE07C39
:103E30001A21081A45B2002D2FDD3E206946087070
:103E400001AA022001F004F8002806D00D226846DD
:103E500002708EA101A800F0EFFF684600780028EC
:103E60001BD0A84200D2054668460570E07C6D1C58
:103E70008555E27C2046092115301154E17C401C17
:103E80000B186846027801A9184600F007FE68463C
:103E90000078E17C801C0818E07413B0F0BD10B508
:103EA00000F044FE032803D0052801D0042801D1E6
:103EB000FFF74DFD10BD70B56E4900240220083992
:103EC00008706A4DE878022807D2012801D1FFF76F
:103ED0001FFFE878401CE87000E00124204670BD18
:103EE0007047032008700A20487000204882087537
:103EF00048751722CA8208220A8310224A838883BF
:103F00006422CA8320310870704710B50121322025
:103F100000F0FAFDFFF7F1FC002801D0FFF717FDD4
:103F200010BD704770477047704710B5FFF70FFD21
:103F300010BD704770477047704710B54B481E233F
:103F40008078322201020E31544800F055FE0121E2
:103F500001704170C17010224271032282700171A0
:103F6000002202728171C17100F058FE10BD1FB5B0
:103F70004BA30FCB6C460FC43C481E2380783222E3
:103F800001020E31454800F037FE04463948102240
:103F9000083844606946A01C00F080FD04202070B1
:103FA00001206070204600F039FE1FBD7047704749
:103FB00070B505461E2332220E21384800F01CFE43
:103FC00004466878FFF725FD072020702A49012064
:103FD00060702039887E2077088B60822046082216
:103FE0001031143000F05AFD234910222039A01C52
:103FF00000F054FD204600F011FE70BD7047012016
:10400000704770477047704710B510460C4600F077
:104010008DFD012809D1322201231146900200F0C2
:10402000EBFD2178017000F0F9FD002010BD0020AB
:1040300070470F4889788170002070470A4810B592
:10404000042332223621801D00F0D6FD09490839AB
:104050004A7882708978C17004490988018000F02B
:10406000DDFD002010BD000003D80000E08200202C
:1040700059580020E49000200C8300204C040000DC
:10408000070103180000000002FF00004441313422
:104090003538302054454D504C0000001438000095
:1040A000000102030405060708090A0B0C0D0E0F98
:1040B00010B50648002101600549382000F07AFE5D
:1040C0000021382000F020FD10BD000014830020E6
:1040D000CC560020FA49032008817047F849052092
:1040E00008817047F64907200881704738B5F548C0
:1040F00000240470F4480078012828D001213820D9
:1041000000F002FD0321092000F0B4FE0721002089
:1041100001F06CF868460094FFF71AFA6846807858
:1041200001046846407800020918684600780818BB
:1041300000F02AFCE54A3821E54800F077FEE44823
:1041400038221146401E00F067FC002038BD38229E
:10415000DF4811460830F6E710B5DA480178491C07
:10416000C9B20170032906D0D84A3821D84800F0D6
:104170005DFE002010BD00210170D5483822114697
:10418000083000F049FCF4E700B587B01822D1A14F
:10419000684600F051FECB48182269466F3000F0A7
:1041A0007DFCC848002218216F30FDF7C9F8FDF7E3
:1041B000A9F800F053FEC007C00F04D0C448052280
:1041C0003821401C03E0C24805223821001D00F0C0
:1041D0002DFE002007B000BDBA4810B500221A21FC
:1041E000401CFDF79BF8BA4864223821801C00F07F
:1041F0001DFE10BD0EB5B24907200881BBA207CA3B
:104200000090B048029201910C2269466F3000F094
:1042100045FC00220C216846FDF792F8FDF772F884
:10422000A848B54A0621401CFDF778F800200EBDCD
:10423000A44810B5401C4179D52905D18179572969
:1042400002D1C079002807D0A14838221146401E6B
:1042500000F0E2FB002010BD38229D481146C01C32
:10426000F6E7984810B50930FFF753FA9848382216
:104270001146401E00F0D0FB0021012000F0B6FFE7
:1042800010BD904810B59D4A6E21401CFDF746F8C0
:1042900010BD30B58A4999B007200881642168466D
:1042A00000F020FC6846FFF7B3F9864800216F3024
:1042B0000170FF214170672181709921C170D42163
:1042C00001714021417101218171EB2200216B4676
:1042D0005C5C4518121B491CC9B2EC71D2B264294E
:1042E000F6D378486C21CF30C27200226038FDF7D7
:1042F00027F8FDF707F87348814A0621401CFDF7AF
:104300000DF8002019B030BD6E4810B500221B21F9
:10431000401CFDF703F86E4864223821401D00F070
:1043200085FD10BD00B566498DB00720088130229B
:1043300074A1684600F080FD62482E2269466F3005
:1043400000F0ACFB00222E216846FCF7F9FFFCF7D9
:10435000D9FF5C48774A0621401CFCF7DFFF0020AC
:104360000DB000BD574810B5401C4179D52902D188
:1043700080798D2807D0564838221146401E00F01B
:104380004BFB002010BD382251481146801DF6E736
:104390004C4810B50930FFF7BCF94D48382211469A
:1043A000C01D00F039FB10BD464810B5624A6E21B1
:1043B000401CFCF7B3FF10BD0EB541490720088132
:1043C0005EA207CA00903F48029201910922694605
:1043D0006F3000F063FB002209216846FCF7B0FF54
:1043E000FCF790FF3748584A0621401CFCF796FF1F
:1043F00000200EBD334810B5401C4179D5290FD19E
:1044000081798F290CD1C079002809D13048382210
:104410001146401E00F000FB0021012000F0E6FEE6
:1044200010BD284810B5494A0A21401CFCF776FF08
:1044300010BD30B5224999B0072008816421684633
:1044400000F050FB6846FFF7E3F81E4800216F308C
:104450000170FF214170662181709A21C170D421C1
:1044600001718E2141719E2200216C46635C4518CA
:10447000D21A491CC9B2AB71D2B26429F6D3114821
:104480006B21CF30827200226038FCF759FFFCF7B5
:1044900039FF0C482E4A0621401CFCF73FFF002044
:1044A00030E710B50021012000F0C2FE00213820C5
:1044B00000F02AFB0721002000F0BAFE002010BD0A
:1044C000001100500091002018830020307500007A
:1044D00003E000005555000000000000000000004F
:1044E00000000000FF03FDD4140117000000FF05C9
:1044F000FBD456010000D500D941002063420020C2
:10450000834200200000FF27D9D48C020000000065
:10451000004000000000000000000000000000005B
:10452000000000000000000000000000000000008B
:104530005E00000009430020914300200000FF02BC
:10454000FED486A600000000A9430020F543002009
:104550002344002000B55F4887B0007801281FD0B1
:1045600002281DD00221382000F0CEFA07210020B9
:1045700000F03CFE03223821574800F057FC182277
:104580005649684600F058FC18226946544800F025
:1045900085FA002218216846FCF7D2FEFCF7B2FE2D
:1045A000002017E64E4810B56E38417A002902D136
:1045B000807A082806D0484838221146C01C00F0EE
:1045C0002BFA7CE7382244481146401CF7E7444860
:1045D00010B5444A1A216E38FCF7A0FE6FE70EB5FD
:1045E00041490720088141A207CA02920191009027
:1045F00000220B216846FCF7A3FEFCF783FE384837
:104600003D4A06216E38FCF789FE00200EBD324877
:1046100010B538221146801C00F0FEF94FE73048F3
:1046200010B56E38417A354A891CFCF777FE46E7AB
:1046300000B52D4985B007200881142230A16846B5
:1046400000F0FAFB002212216846FCF779FEFCF725
:1046500059FE23482F4A0B216E38FCF75FFE0020DD
:1046600005B000BD1E4810B56638FEF782FF1A4837
:1046700038221146C01C00F0CFF920E7184810B5C9
:10468000254A10216E38FCF749FE18E71FB5164978
:104690000720088121A30FCB6C460FC400220F21F5
:1046A0006846FCF74DFEFCF72DFE0D481F4A06211B
:1046B0006E38FCF733FE002004B000E710B500218F
:1046C000382000F021FA0721002000F0B1FD002081
:1046D000F5E60000188300200CE00000D444002020
:1046E0006F910020A5450020001100500000FF043C
:1046F000FCD44A0100E10000CF4500200F46002015
:104700000000FF0CF4D4400100A4000002100100DE
:10471000340000001F460020654600200000FF080E
:10472000F8D44001805C0002040900007D460020AE
:10473000024670B54A40D30FDB0740002DD04A0037
:104740002AD0010E140E091900021202400A520A60
:104750008418E50104465443000A120A2E0450430B
:10476000A4194219200CC543AA18120C01257F393F
:10477000521CAD0352191204240400D0521C1043E1
:1047800001D44000491EC2B20C06C0092018401CCA
:104790004008802A02D003E0002070BD400840009D
:1047A000002900DA0020184370BD70B502464A4067
:1047B000D50F40004A00ED0740085208002814D0E9
:1047C000002A12D0C40DD30D41020120C0055202AF
:1047D000490A520AE41A091812187D34914201D389
:1047E000641C00E04900002C01DA002070BD0023A9
:1047F000914201D3891A0343400849000028F7D1A8
:1048000000290AD0914202D10121C90705E0914255
:1048100001D2012101E00121C943E005C01840197E
:1048200000F058F870BD420005D04200120E52420E
:104830008A4201DB00207047C9050818704710B58F
:1048400000229623114600F04DF810BD41004002B1
:104850000122400AD205090E80187F2901DA0020C2
:104860007047962903DC9622511AC8407047963942
:1048700088407047C20FD207400040080BD0C10DDE
:104880000723DB01C91840020905400A1143C20889
:10489000400711437047002001467047CB0FDB07EC
:1048A000490010B5490802460A4307D00A0D0724FB
:1048B0000903E401090B121B002A01DC002010BDD2
:1048C000C900440F0C43C100E018D205801800F065
:1048D00001F810BD002904DA401C490001D140084C
:1048E0004000704770B40024050C05D1102400046A
:1048F00002D1002922D01124050E01D10834000272
:10490000050F01D1241D0001850F01D1A41C8000D9
:10491000002801DB641C4000002908D020252E1B44
:104920000D46F540A14000D00121294308431B1B3F
:104930000106DB1D000A002B02DA002070BC704764
:10494000DB05181880180029F8DA401C4900F5D159
:1049500070BC400840007047064C0125064E05E03B
:104960002046E36807C82B4398471034B442F7D376
:10497000FBF76AFD7C570020AC57002003B40148C8
:10498000019001BD551B020003B40148019001BD17
:104990000F3B030003B40148019001BDCF2B03007E
:1049A00003B40148019001BDCB2C030003B40148BE
:1049B000019001BD0990020003B40148019001BDBE
:1049C0001F21020003B40148019001BDC12D030065
:1049D00003B40148019001BD0921030003B401485B
:1049E000019001BDC92D030003B40148019001BD30
:1049F0002B69020003B40148019001BDEB310300B3
:104A000003B40148019001BD3D32030003B40148E5
:104A1000019001BDD721030003B40148019001BDFD
:104A20000D24030003B40148019001BDA73A03001F
:104A300003B40148019001BD913B030003B4014858
:104A4000019001BD2F2F030003B40148019001BD67
:104A5000998F020003B40148019001BD938F0200B9
:104A600003B40148019001BDCD8C020003B401489C
:104A7000019001BD418F020003B40148019001BDC6
:104A80002768020003B40148019001BD39680200A3
:104A900003B40148019001BDB780020003B401488E
:104AA000019001BD213B030003B40148019001BD09
:104AB000BF22020003B40148019001BDEB260300B0
:104AC00003B40148019001BD3524030003B401483B
:104AD000019001BD2F22020003B40148019001BDE5
:104AE000DD20030003B40148019001BD533B0300E6
:104AF00003B40148019001BD9D20030003B40148A7
:104B0000019001BD3350020003B40148019001BD82
:104B10003126030003B40148019001BD554802004D
:104B200003B40148019001BD1F50020003B40148C5
:104B3000019001BDB326030003B40148019001BDFB
:104B4000FD3D030003B40148019001BDA528030009
:104B500003B40148019001BDD5AF020003B4014880
:104B6000019001BDA1A5020003B40148019001BD5F
:104B7000E3A5020003B40148019001BD87A802002B
:104B800003B40148019001BDA7A9020003B4014884
:104B9000019001BD93AA020003B40148019001BD38
:104BA00095AB020003B40148019001BDF9AB0200CE
:104BB00003B40148019001BD69AC020003B401488F
:104BC000019001BD17AD020003B40148019001BD81
:104BD00077AD020003B40148019001BDF1AD0200C0
:104BE00003B40148019001BD85AE020003B4014841
:104BF000019001BD11AF020003B40148019001BD55
:104C0000B123030003B40148019001BD49E502004E
:104C100003B40148019001BDF9E3020003B4014867
:104C2000019001BDE123030003B40148019001BDDF
:104C30004BCD020003B40148019001BD99D102009F
:104C400003B40148019001BDABD0020003B4014898
:104C5000019001BD69D0020003B40148019001BD7B
:104C600077CF020003B40148019001BD01CC0200DE
:104C700003B40148019001BD29CC020003B40148EE
:104C8000019001BD15D2020003B40148019001BD9D
:104C90008DD2020003B40148019001BD7F0C0300D6
:104CA00003B40148019001BDAB0C030003B40148FB
:104CB000019001BD773B030003B40148019001BDA1
:104CC0007920030003B40148019001BD21290300AC
:104CD00003B40148019001BDD990020003B401481A
:104CE000019001BDC768020003B40148019001BDF5
:104CF0000D2C030003B40148019001BD15310300E0
:104D000003B40148019001BD1B66020003B40148D1
:104D1000019001BD652C030003B40148019001BD61
:104D2000F793020003B40148019001BDDB2E03009C
:104D300003B40148019001BD231D020003B40148E2
:104D4000019001BDC32C030003B40148019001BDD3
:104D50003B66020003B40148019001BD2B660200CE
:104D600003B40148019001BD038D020003B4014862
:104D7000019001BDCF8F020003B40148019001BD35
:104D8000E3E3020003B40148019001BDB7E3020070
:104D900003B40148019001BD1D98020003B401480D
:104DA000019001BDD722030003B40148019001BD69
:104DB0001B24030003B40148019001BD87250300B3
:104DC00003B40148019001BD95E3020003B401481A
:104DD000019001BD1522030003B40148019001BDFB
:104DE000533B030003B40148019001BD7B9C0200CA
:104DF00003B40148019001BDA59B020003B4014822
:104E0000019001BD299C020003B40148019001BD3D
:104E10006D9B020003B40148019001BD959802000A
:104E200003B40148019001BD9599020003B4014803
:104E3000019001BD2528030003B40148019001BD84
:104E4000213B030003B40148019001BDF3AF020010
:104E500003B40148019001BDD129030003B4014806
:104E6000019001BDFD3A030003B40148019001BD6A
:104E7000D33A030003B40148019001BD5D800200F4
:104E800003B40148019001BD8D3D0300FFB581B021
:104E90000C4605460A461F46012000210A9EFFF7E0
:104EA000EFFF2A01FFF7ECFF0C4B1A685B6810401C
:104EB0001940084300D100BE002E2146284602D0EA
:104EC00000F094F901E000F0B3F93B462146284692
:104ED000039A00F0CFF905B0F0BD0000209000204B
:104EE000FFB514460D4606460A4681B00120002152
:104EF000FFF7C6FF3201FFF7C3FF8C4B1A685B68F0
:104F000010401940084300D100BE89A000680090FD
:104F10008848838920461338FF22013282400B994A
:104F20009343002901D0012700E00027D10701D0D9
:104F3000002138E0910701D5012134E0510701D566
:104F4000022130E0110701D503212CE0D10601D563
:104F5000042128E0910601D5052124E0510601D560
:104F6000062120E0110601D507211CE0D10501D55D
:104F7000082118E0910501D5092114E0510501D55A
:104F80000A2110E0110501D50B210CE0D10401D557
:104F90000C2108E0910401D50D2104E0510401D554
:104FA0000E2100E00F218F4062493B438B818B89AA
:104FB0000B9F9B099B013B438B810B8A9343D70734
:104FC00001D0002238E0970701D5012234E05707CD
:104FD00001D5022230E0170701D503222CE0D706C5
:104FE00001D5042228E0970601D5052224E05706C2
:104FF00001D5062220E0170601D507221CE0D705BF
:1050000001D5082218E0970501D5092214E05705BB
:1050100001D50A2210E0170501D50B220CE0D704B8
:1050200001D50C2208E0970401D50D2204E05204BA
:1050300001D50E2200E00F220A9F97403B430B82CE
:105040000B8A02460127384690408343C20701D0AD
:10505000002238E0820701D5012234E0420701D561
:10506000022230E0020701D503222CE0C20601D55E
:10507000042228E0820601D5052224E0420601D55B
:10508000062220E0020601D507221CE0C20501D558
:10509000082218E0820501D5092214E0420501D555
:1050A0000A2210E0020501D50B220CE0C20401D552
:1050B0000C2208E0820401D50D2204E0400401D551
:1050C0000E2200E00F220498904003430B821948FF
:1050D000610040380818418B6A468909925D890150
:1050E000521911434183A007C20EFF219140802035
:1050F0009040002C0BDA2207120F083A93080E4A50
:105100009B009B18DA698A430243DA6107E0A3082F
:105110000A4A9B009B181A688A4302431A60E006F9
:10512000C00E87400648076005B0F0BD2090002003
:1051300001090F190014005000ED00E000E400E048
:1051400000E100E0024A8000801880384163704727
:10515000C890002010B5244CE38901221338114671
:1051600081408B43C80701D0002038E0880701D573
:10517000012034E0480701D5022030E0080701D5BE
:1051800003202CE0C80601D5042028E0880601D5BC
:10519000052024E0480601D5062020E0080601D5B8
:1051A00007201CE0C80501D5082018E0880501D5B6
:1051B000092014E0480501D50A2010E0080501D5B2
:1051C0000B200CE0C80401D50C2008E0880401D5B0
:1051D0000D2004E0480401D50E2000E00F2082409D
:1051E0001343E38110BD00000014005070B5044665
:1051F0000D460A4601200021FFF742FE2201FFF77B
:105200003FFE094A1368526818401140084300D114
:1052100000BE032C00D10424044960014018012180
:10522000A940418070BD0000209000200030005057
:1052300070B504460D460A4601200021FFF720FE06
:105240002201FFF71DFE094A1368526818401140F9
:10525000084300D100BE032C00D10424044960019E
:1052600040180121A940818070BD000020900020DD
:1052700000300050F8B5164604460D460A461F4653
:1052800001200021FFF7FCFD2201FFF7F9FD094B8A
:105290001A685B6810401940084300D100BE032C17
:1052A00000D10424044960014018690008183E43F5
:1052B000C680F8BD2090002000300050FEB50020D0
:1052C000214E034628220021424392198C00491C9A
:1052D00013510A29FADB401C0428F3DBFBF7C8FB57
:1052E0001948002208380260426015460024174819
:1052F0006900475A0120A04080B207421CD02820F4
:1053000068438019A1004058411C19D0002810D0D2
:10531000C1172246FFF7B4FD2A01FFF7B1FD0A4B82
:10532000083B1A685B681043074A1943083A106043
:105330005160641C0A2CDDDB6D1C042DD6DBFEBD28
:105340000095019400BEE3E728900020A6530020BA
:1053500002E008C8121F08C1002AFAD1704770473E
:10536000002001E001C1121F002AFBD1704700009C
:1053700071050020611500204D1600200B1700203C
:10538000391700209D140020011500204519002028
:105390000101000A04280A040203AA0055032A0096
:1053A000A001FFFF2C01FF003F00FF03FF010000F1
:1053B0001C540020345400206480002003000600A8
:1053C000292A0002242A0002252A0002272A000294
:1053D000262A0002282A0002232A00022A2A000282
:1053E000502A00020374000035220020083000001B
:1053F00087220020033000005F21002005300000DC
:105400007F21002000740000E52000200338000008
:10541000A322002000300000A52100200000000091
:1054200000000000F453002002000000E4530020BC
:1054300002000000045400200300000000010203E9
:105440000405060708090A0B0C0D0E0F10111213A4
:105450001415161718191A1B1C1D1E1F2021222394
:105460002425262728292A2B2C2D2E2F3031323384
:105470003435363738393A3B3C3D3E3F4041424374
:105480004445464748494A4B4C4D4E4F5051525364
:105490005455565758595A5B5C5D5E5F6061626354
:1054A0006465666768696A6B6C6D6E6F7071727344
:1054B0007475767778797A7B7C7D7E7F8081828334
:1054C0008485868788898A8B8C8D8E8F9091929324
:1054D0009495969798999A9B9C9D9E9F1455002011
:1054E0002C550020748000200300010003D8000028
:1054F000FD2A002000D800007D2D00200E30000085
:10550000052F002009D80000C52E00200338000018
:10551000FB330020EC54002001000000F454002074
:1055200001000000FC540020020000000C55002087
:1055300001000000006402030405060708090A0BC5
:105540000C0D0E0F101112131415161718191A1B23
:105550001C1D1E1F202122232425262728292A2B13
:105560002C2D2E2F303100320203040506070809C6
:105570000A0B0C0D0E0F1011121314151617181913
:105580001A1B1C1D1E1F2021222324252627282903
:105590002A2B2C2D2E2F30310064640304050607BE
:1055A00008090A0B0C0D0E0F101112131415161703
:1055B00018191A1B1C1D1E1F2021222324252627F3
:1055C00028292A2B2C2D2E2F30330032640304057A
:1055D000060708090A0B0C0D0E0F101112131415F3
:1055E000161718191A1B1C1D1E1F202122232425E3
:1055F000262728292A2B2C2D2E2F30332C560020FD
:1056000034560020DF8200200100010000DC000091
:105610005134002001DC0000DD34002002DC0000F9
:10562000FB34002003DC00002735002000000000D0
:10563000000000000C5600200400000000000000E4
:10564000C456002010830020060001000134000031
:10565000D53B002000340000F93B0020003800005A
:105660009B3C0020013800007B3C002003380000F8
:10567000CD3C002000C80000D93C002010340000C0
:10568000FD3C002013380000B13A0020153800001E
:10569000033B002017380000453B0020193800006C
:1056A000BD3B002004D800000940002002D80000C3
:1056B0003340002001D800002F40002001C8000026
:1056C0003D4000204C5600200F0000005C57002099
:1056D00074570020188300200300010000E0000040
:1056E000ED40002001E000005545002002E00000F0
:1056F0008941002003E000005941002004E000003F
:10570000F541002005E000003142002006E00000E5
:105710009342002007E000002543002008E000003D
:105720006543002009E00000B94300200AE00000C2
:10573000334400200BE00000A34400200CE00000F4
:10574000DF4500200DE00000314600200EE00000A3
:105750008D4600200FE00000BD4600200000000044
:1057600000000000EC5600200A0000003C5700201A
:1057700004000000DC5600200200000064580020F5
:10578000008000201C0300006053002064580020AB
:1057900020900020BC010000605300206807080032
:1057A000202A0800E0050000605300200A000010D5
:1057B0001112131415161718191A1B1C1D1E1F0A77
:1057C0000000202122232425262728292A2B2C2DBE
:1057D0002E2F0A0000303132333435363738393A1B
:1057E0003B3C3D3E3F12000040414243444546475A
:1057F00048494A4B4C4D4E4F0A00005051525354A9
:1058000055565758595A5B5C5D5E5F0A00006061EF
:1058100062636465666768696A6B6C6D6E6F0A00C7
:1058200000707172737475767778797A7B7C7D7E7F
:105830007F0A0000808182838485868788898A8B9D
:105840008C8D8E8F0A0000909192939495969798E4
:10585000999A9B9C9D9E9F030506060100000000EF
:045860000000000044
:040000052000044192
:00000001FF
